{
  "_format": "hh-sol-artifact-1",
  "contractName": "BattleGear",
  "sourceName": "contracts/BattleGear.sol",
  "abi": [
    {
      "inputs": [],
      "stateMutability": "nonpayable",
      "type": "constructor"
    },
    {
      "anonymous": false,
      "inputs": [
        {
          "indexed": true,
          "internalType": "address",
          "name": "owner",
          "type": "address"
        },
        {
          "indexed": true,
          "internalType": "address",
          "name": "approved",
          "type": "address"
        },
        {
          "indexed": true,
          "internalType": "uint256",
          "name": "tokenId",
          "type": "uint256"
        }
      ],
      "name": "Approval",
      "type": "event"
    },
    {
      "anonymous": false,
      "inputs": [
        {
          "indexed": true,
          "internalType": "address",
          "name": "owner",
          "type": "address"
        },
        {
          "indexed": true,
          "internalType": "address",
          "name": "operator",
          "type": "address"
        },
        {
          "indexed": false,
          "internalType": "bool",
          "name": "approved",
          "type": "bool"
        }
      ],
      "name": "ApprovalForAll",
      "type": "event"
    },
    {
      "anonymous": false,
      "inputs": [
        {
          "indexed": true,
          "internalType": "address",
          "name": "previousOwner",
          "type": "address"
        },
        {
          "indexed": true,
          "internalType": "address",
          "name": "newOwner",
          "type": "address"
        }
      ],
      "name": "OwnershipTransferred",
      "type": "event"
    },
    {
      "anonymous": false,
      "inputs": [
        {
          "indexed": true,
          "internalType": "address",
          "name": "from",
          "type": "address"
        },
        {
          "indexed": true,
          "internalType": "address",
          "name": "to",
          "type": "address"
        },
        {
          "indexed": true,
          "internalType": "uint256",
          "name": "tokenId",
          "type": "uint256"
        }
      ],
      "name": "Transfer",
      "type": "event"
    },
    {
      "inputs": [
        {
          "internalType": "address",
          "name": "to",
          "type": "address"
        },
        {
          "internalType": "uint256",
          "name": "tokenId",
          "type": "uint256"
        }
      ],
      "name": "approve",
      "outputs": [],
      "stateMutability": "nonpayable",
      "type": "function"
    },
    {
      "inputs": [
        {
          "internalType": "address",
          "name": "owner",
          "type": "address"
        }
      ],
      "name": "balanceOf",
      "outputs": [
        {
          "internalType": "uint256",
          "name": "",
          "type": "uint256"
        }
      ],
      "stateMutability": "view",
      "type": "function"
    },
    {
      "inputs": [
        {
          "internalType": "uint256",
          "name": "tokenId",
          "type": "uint256"
        }
      ],
      "name": "claim",
      "outputs": [],
      "stateMutability": "nonpayable",
      "type": "function"
    },
    {
      "inputs": [
        {
          "internalType": "uint256",
          "name": "tokenId",
          "type": "uint256"
        }
      ],
      "name": "getApproved",
      "outputs": [
        {
          "internalType": "address",
          "name": "",
          "type": "address"
        }
      ],
      "stateMutability": "view",
      "type": "function"
    },
    {
      "inputs": [
        {
          "internalType": "uint256",
          "name": "tokenId",
          "type": "uint256"
        }
      ],
      "name": "getBulletProofVest",
      "outputs": [
        {
          "internalType": "string",
          "name": "",
          "type": "string"
        }
      ],
      "stateMutability": "view",
      "type": "function"
    },
    {
      "inputs": [
        {
          "internalType": "uint256",
          "name": "tokenId",
          "type": "uint256"
        }
      ],
      "name": "getGrenades",
      "outputs": [
        {
          "internalType": "string",
          "name": "",
          "type": "string"
        }
      ],
      "stateMutability": "view",
      "type": "function"
    },
    {
      "inputs": [
        {
          "internalType": "uint256",
          "name": "tokenId",
          "type": "uint256"
        }
      ],
      "name": "getHandGun",
      "outputs": [
        {
          "internalType": "string",
          "name": "",
          "type": "string"
        }
      ],
      "stateMutability": "view",
      "type": "function"
    },
    {
      "inputs": [
        {
          "internalType": "uint256",
          "name": "tokenId",
          "type": "uint256"
        }
      ],
      "name": "getHelmet",
      "outputs": [
        {
          "internalType": "string",
          "name": "",
          "type": "string"
        }
      ],
      "stateMutability": "view",
      "type": "function"
    },
    {
      "inputs": [
        {
          "internalType": "uint256",
          "name": "tokenId",
          "type": "uint256"
        }
      ],
      "name": "getKnife",
      "outputs": [
        {
          "internalType": "string",
          "name": "",
          "type": "string"
        }
      ],
      "stateMutability": "view",
      "type": "function"
    },
    {
      "inputs": [
        {
          "internalType": "uint256",
          "name": "tokenId",
          "type": "uint256"
        }
      ],
      "name": "getNightVision",
      "outputs": [
        {
          "internalType": "string",
          "name": "",
          "type": "string"
        }
      ],
      "stateMutability": "view",
      "type": "function"
    },
    {
      "inputs": [
        {
          "internalType": "uint256",
          "name": "tokenId",
          "type": "uint256"
        }
      ],
      "name": "getRifles",
      "outputs": [
        {
          "internalType": "string",
          "name": "",
          "type": "string"
        }
      ],
      "stateMutability": "view",
      "type": "function"
    },
    {
      "inputs": [
        {
          "internalType": "uint256",
          "name": "tokenId",
          "type": "uint256"
        }
      ],
      "name": "getShoes",
      "outputs": [
        {
          "internalType": "string",
          "name": "",
          "type": "string"
        }
      ],
      "stateMutability": "view",
      "type": "function"
    },
    {
      "inputs": [
        {
          "internalType": "address",
          "name": "owner",
          "type": "address"
        },
        {
          "internalType": "address",
          "name": "operator",
          "type": "address"
        }
      ],
      "name": "isApprovedForAll",
      "outputs": [
        {
          "internalType": "bool",
          "name": "",
          "type": "bool"
        }
      ],
      "stateMutability": "view",
      "type": "function"
    },
    {
      "inputs": [],
      "name": "name",
      "outputs": [
        {
          "internalType": "string",
          "name": "",
          "type": "string"
        }
      ],
      "stateMutability": "view",
      "type": "function"
    },
    {
      "inputs": [],
      "name": "owner",
      "outputs": [
        {
          "internalType": "address",
          "name": "",
          "type": "address"
        }
      ],
      "stateMutability": "view",
      "type": "function"
    },
    {
      "inputs": [
        {
          "internalType": "uint256",
          "name": "tokenId",
          "type": "uint256"
        }
      ],
      "name": "ownerOf",
      "outputs": [
        {
          "internalType": "address",
          "name": "",
          "type": "address"
        }
      ],
      "stateMutability": "view",
      "type": "function"
    },
    {
      "inputs": [],
      "name": "renounceOwnership",
      "outputs": [],
      "stateMutability": "nonpayable",
      "type": "function"
    },
    {
      "inputs": [
        {
          "internalType": "address",
          "name": "from",
          "type": "address"
        },
        {
          "internalType": "address",
          "name": "to",
          "type": "address"
        },
        {
          "internalType": "uint256",
          "name": "tokenId",
          "type": "uint256"
        }
      ],
      "name": "safeTransferFrom",
      "outputs": [],
      "stateMutability": "nonpayable",
      "type": "function"
    },
    {
      "inputs": [
        {
          "internalType": "address",
          "name": "from",
          "type": "address"
        },
        {
          "internalType": "address",
          "name": "to",
          "type": "address"
        },
        {
          "internalType": "uint256",
          "name": "tokenId",
          "type": "uint256"
        },
        {
          "internalType": "bytes",
          "name": "_data",
          "type": "bytes"
        }
      ],
      "name": "safeTransferFrom",
      "outputs": [],
      "stateMutability": "nonpayable",
      "type": "function"
    },
    {
      "inputs": [
        {
          "internalType": "address",
          "name": "operator",
          "type": "address"
        },
        {
          "internalType": "bool",
          "name": "approved",
          "type": "bool"
        }
      ],
      "name": "setApprovalForAll",
      "outputs": [],
      "stateMutability": "nonpayable",
      "type": "function"
    },
    {
      "inputs": [
        {
          "internalType": "bytes4",
          "name": "interfaceId",
          "type": "bytes4"
        }
      ],
      "name": "supportsInterface",
      "outputs": [
        {
          "internalType": "bool",
          "name": "",
          "type": "bool"
        }
      ],
      "stateMutability": "view",
      "type": "function"
    },
    {
      "inputs": [],
      "name": "symbol",
      "outputs": [
        {
          "internalType": "string",
          "name": "",
          "type": "string"
        }
      ],
      "stateMutability": "view",
      "type": "function"
    },
    {
      "inputs": [
        {
          "internalType": "uint256",
          "name": "index",
          "type": "uint256"
        }
      ],
      "name": "tokenByIndex",
      "outputs": [
        {
          "internalType": "uint256",
          "name": "",
          "type": "uint256"
        }
      ],
      "stateMutability": "view",
      "type": "function"
    },
    {
      "inputs": [
        {
          "internalType": "address",
          "name": "owner",
          "type": "address"
        },
        {
          "internalType": "uint256",
          "name": "index",
          "type": "uint256"
        }
      ],
      "name": "tokenOfOwnerByIndex",
      "outputs": [
        {
          "internalType": "uint256",
          "name": "",
          "type": "uint256"
        }
      ],
      "stateMutability": "view",
      "type": "function"
    },
    {
      "inputs": [
        {
          "internalType": "uint256",
          "name": "tokenId",
          "type": "uint256"
        }
      ],
      "name": "tokenURI",
      "outputs": [
        {
          "internalType": "string",
          "name": "",
          "type": "string"
        }
      ],
      "stateMutability": "view",
      "type": "function"
    },
    {
      "inputs": [],
      "name": "totalSupply",
      "outputs": [
        {
          "internalType": "uint256",
          "name": "",
          "type": "uint256"
        }
      ],
      "stateMutability": "view",
      "type": "function"
    },
    {
      "inputs": [
        {
          "internalType": "address",
          "name": "from",
          "type": "address"
        },
        {
          "internalType": "address",
          "name": "to",
          "type": "address"
        },
        {
          "internalType": "uint256",
          "name": "tokenId",
          "type": "uint256"
        }
      ],
      "name": "transferFrom",
      "outputs": [],
      "stateMutability": "nonpayable",
      "type": "function"
    },
    {
      "inputs": [
        {
          "internalType": "address",
          "name": "newOwner",
          "type": "address"
        }
      ],
      "name": "transferOwnership",
      "outputs": [],
      "stateMutability": "nonpayable",
      "type": "function"
    }
  ],
  "bytecode": "0x60806040526040518060c001604052806040518060400160405280600481526020017f4e756c6c0000000000000000000000000000000000000000000000000000000081525081526020016040518060400160405280600481526020017f4e494a330000000000000000000000000000000000000000000000000000000081525081526020016040518060400160405280600581526020017f504153475400000000000000000000000000000000000000000000000000000081525081526020016040518060400160405280600381526020017f414348000000000000000000000000000000000000000000000000000000000081525081526020016040518060400160405280600381526020017f415445000000000000000000000000000000000000000000000000000000000081525081526020016040518060400160405280600381526020017f4543480000000000000000000000000000000000000000000000000000000000815250815250600c9060066200018192919062001029565b5060405180604001604052806040518060400160405280600481526020017f4e756c6c0000000000000000000000000000000000000000000000000000000081525081526020016040518060400160405280600581526020017f4e56473131000000000000000000000000000000000000000000000000000000815250815250600d9060026200021392919062001090565b5060405180608001604052806040518060400160405280600481526020017f4e756c6c0000000000000000000000000000000000000000000000000000000081525081526020016040518060400160405280600581526020017f42502d564900000000000000000000000000000000000000000000000000000081525081526020016040518060400160405280600581526020017f4250562d3400000000000000000000000000000000000000000000000000000081525081526020016040518060400160405280600581526020017f42502d4949000000000000000000000000000000000000000000000000000000815250815250600e9060046200031b929190620010f7565b506040518060e001604052806040518060400160405280600581526020017f4b756b726900000000000000000000000000000000000000000000000000000081525081526020016040518060400160405280600881526020017f4b6172616d62697400000000000000000000000000000000000000000000000081525081526020016040518060400160405280600481526020017f4b2d4d330000000000000000000000000000000000000000000000000000000081525081526020016040518060400160405280600481526020017f4b2d42310000000000000000000000000000000000000000000000000000000081525081526020016040518060400160405280600681526020017f4b2d57696e67000000000000000000000000000000000000000000000000000081525081526020016040518060400160405280600881526020017f4b2d54616374696300000000000000000000000000000000000000000000000081525081526020016040518060400160405280600581526020017f4b2d534d46000000000000000000000000000000000000000000000000000000815250815250600f906007620004d49291906200115e565b506040518060a001604052806040518060400160405280600381526020017f504131000000000000000000000000000000000000000000000000000000000081525081526020016040518060400160405280600781526020017f502d476c6f636b0000000000000000000000000000000000000000000000000081525081526020016040518060400160405280600981526020017f502d42657265747461000000000000000000000000000000000000000000000081525081526020016040518060400160405280600381526020017f507834000000000000000000000000000000000000000000000000000000000081525081526020016040518060400160405280600781526020017f502d5374726f6d00000000000000000000000000000000000000000000000000815250815250601090600562000617929190620011c5565b506040518061020001604052806040518060400160405280600381526020017f4d4733000000000000000000000000000000000000000000000000000000000081525081526020016040518060400160405280600381526020017f41574d000000000000000000000000000000000000000000000000000000000081525081526020016040518060400160405280600781526020017f3938204b75727a0000000000000000000000000000000000000000000000000081525081526020016040518060400160405280600381526020017f414b4d000000000000000000000000000000000000000000000000000000000081525081526020016040518060400160405280600381526020017f415547000000000000000000000000000000000000000000000000000000000081525081526020016040518060400160405280600481526020017f4d3736320000000000000000000000000000000000000000000000000000000081525081526020016040518060400160405280600481526020017f473336430000000000000000000000000000000000000000000000000000000081525081526020016040518060400160405280600581526020017f47726f7a6100000000000000000000000000000000000000000000000000000081525081526020016040518060400160405280600281526020017f4b3200000000000000000000000000000000000000000000000000000000000081525081526020016040518060400160405280600581526020017f4d3136413400000000000000000000000000000000000000000000000000000081525081526020016040518060400160405280600481526020017f4d3431360000000000000000000000000000000000000000000000000000000081525081526020016040518060400160405280600481526020017f4d4b34370000000000000000000000000000000000000000000000000000000081525081526020016040518060400160405280600681526020017f534341522d4c000000000000000000000000000000000000000000000000000081525081526020016040518060400160405280600781526020017f313220426f72650000000000000000000000000000000000000000000000000081525081526020016040518060400160405280600381526020017f533437000000000000000000000000000000000000000000000000000000000081525081526020016040518060400160405280600581526020017f532d504b390000000000000000000000000000000000000000000000000000008152508152506011906010620009e49291906200122c565b506040518060a001604052806040518060400160405280600481526020017f4e756c6c0000000000000000000000000000000000000000000000000000000081525081526020016040518060400160405280600281526020017f473400000000000000000000000000000000000000000000000000000000000081525081526020016040518060400160405280600881526020017f436f636b7461696c00000000000000000000000000000000000000000000000081525081526020016040518060400160405280600781526020017f536d6f6b652d470000000000000000000000000000000000000000000000000081525081526020016040518060400160405280600881526020017f4465636f792d4734000000000000000000000000000000000000000000000000815250815250601290600562000b27929190620011c5565b50604051806101c001604052806040518060400160405280600581526020017f426f6f747300000000000000000000000000000000000000000000000000000081525081526020016040518060400160405280600881526020017f536e65616b65727300000000000000000000000000000000000000000000000081525081526020016040518060400160405280600b81526020017f42696b657220426f6f747300000000000000000000000000000000000000000081525081526020016040518060400160405280600781526020017f4c6f61666572730000000000000000000000000000000000000000000000000081525081526020016040518060400160405280600681526020017f48692d746f70000000000000000000000000000000000000000000000000000081525081526020016040518060400160405280600f81526020017f4361707461696e20747261696e6572000000000000000000000000000000000081525081526020016040518060400160405280600581526020017f4b69636b7300000000000000000000000000000000000000000000000000000081525081526020016040518060400160405280600d81526020017f4c65617468657220626f6f74730000000000000000000000000000000000000081525081526020016040518060400160405280600781526020017f53616e64616c730000000000000000000000000000000000000000000000000081525081526020016040518060400160405280600c81526020017f5363686f6f6c2053686f6573000000000000000000000000000000000000000081525081526020016040518060400160405280600381526020017f537061000000000000000000000000000000000000000000000000000000000081525081526020016040518060400160405280600781526020017f576f726b696e670000000000000000000000000000000000000000000000000081525081526020016040518060400160405280600881526020017f5761722d7a6f6e6500000000000000000000000000000000000000000000000081525081526020016040518060400160405280600581526020017f5a69702d75000000000000000000000000000000000000000000000000000000815250815250601390600e62000e7e92919062001293565b5034801562000e8c57600080fd5b506040518060400160405280600a81526020017f426174746c6547656172000000000000000000000000000000000000000000008152506040518060400160405280600281526020017f4247000000000000000000000000000000000000000000000000000000000000815250816000908051906020019062000f11929190620012fa565b50806001908051906020019062000f2a929190620012fa565b5050506001600a8190555062000f5562000f4962000f5b60201b60201c565b62000f6360201b60201c565b6200147d565b600033905090565b6000600b60009054906101000a900473ffffffffffffffffffffffffffffffffffffffff16905081600b60006101000a81548173ffffffffffffffffffffffffffffffffffffffff021916908373ffffffffffffffffffffffffffffffffffffffff1602179055508173ffffffffffffffffffffffffffffffffffffffff168173ffffffffffffffffffffffffffffffffffffffff167f8be0079c531659141344cd1fd0a4f28419497f9722a3daafe3b4186f6b6457e060405160405180910390a35050565b8280548282559060005260206000209081019282156200107d579160200282015b828111156200107c5782518290805190602001906200106b929190620012fa565b50916020019190600101906200104a565b5b5090506200108c91906200138b565b5090565b828054828255906000526020600020908101928215620010e4579160200282015b82811115620010e3578251829080519060200190620010d2929190620012fa565b5091602001919060010190620010b1565b5b509050620010f391906200138b565b5090565b8280548282559060005260206000209081019282156200114b579160200282015b828111156200114a57825182908051906020019062001139929190620012fa565b509160200191906001019062001118565b5b5090506200115a91906200138b565b5090565b828054828255906000526020600020908101928215620011b2579160200282015b82811115620011b1578251829080519060200190620011a0929190620012fa565b50916020019190600101906200117f565b5b509050620011c191906200138b565b5090565b82805482825590600052602060002090810192821562001219579160200282015b828111156200121857825182908051906020019062001207929190620012fa565b5091602001919060010190620011e6565b5b5090506200122891906200138b565b5090565b82805482825590600052602060002090810192821562001280579160200282015b828111156200127f5782518290805190602001906200126e929190620012fa565b50916020019190600101906200124d565b5b5090506200128f91906200138b565b5090565b828054828255906000526020600020908101928215620012e7579160200282015b82811115620012e6578251829080519060200190620012d5929190620012fa565b5091602001919060010190620012b4565b5b509050620012f691906200138b565b5090565b828054620013089062001447565b90600052602060002090601f0160209004810192826200132c576000855562001378565b82601f106200134757805160ff191683800117855562001378565b8280016001018555821562001378579182015b82811115620013775782518255916020019190600101906200135a565b5b509050620013879190620013b3565b5090565b5b80821115620013af5760008181620013a59190620013d2565b506001016200138c565b5090565b5b80821115620013ce576000816000905550600101620013b4565b5090565b508054620013e09062001447565b6000825580601f10620013f4575062001415565b601f016020900490600052602060002090810190620014149190620013b3565b5b50565b7f4e487b7100000000000000000000000000000000000000000000000000000000600052602260045260246000fd5b600060028204905060018216806200146057607f821691505b6020821081141562001477576200147662001418565b5b50919050565b614d61806200148d6000396000f3fe608060405234801561001057600080fd5b50600436106101c45760003560e01c806370a08231116100f9578063b88d4fde11610097578063dec6c15411610071578063dec6c15414610563578063e985e9c514610593578063efbb0bd2146105c3578063f2fde38b146105f3576101c4565b8063b88d4fde146104e7578063c87b56dd14610503578063d163a2d614610533576101c4565b806395d89b41116100d357806395d89b411461044d578063a09de9411461046b578063a22cb4651461049b578063a5f23e1d146104b7576101c4565b806370a08231146103f5578063715018a6146104255780638da5cb5b1461042f576101c4565b8063296899cf1161016657806342842e0e1161014057806342842e0e146103495780634f6ccce714610365578063608d8136146103955780636352211e146103c5576101c4565b8063296899cf146102cd5780632f745c59146102fd578063379607f51461032d576101c4565b8063081812fc116101a2578063081812fc14610247578063095ea7b31461027757806318160ddd1461029357806323b872dd146102b1576101c4565b806301ffc9a7146101c9578063052d2836146101f957806306fdde0314610229575b600080fd5b6101e360048036038101906101de91906133ca565b61060f565b6040516101f09190613412565b60405180910390f35b610213600480360381019061020e9190613463565b610689565b6040516102209190613529565b60405180910390f35b6102316107a3565b60405161023e9190613529565b60405180910390f35b610261600480360381019061025c9190613463565b610835565b60405161026e919061358c565b60405180910390f35b610291600480360381019061028c91906135d3565b6108ba565b005b61029b6109d2565b6040516102a89190613622565b60405180910390f35b6102cb60048036038101906102c6919061363d565b6109df565b005b6102e760048036038101906102e29190613463565b610a3f565b6040516102f49190613529565b60405180910390f35b610317600480360381019061031291906135d3565b610b59565b6040516103249190613622565b60405180910390f35b61034760048036038101906103429190613463565b610bfe565b005b610363600480360381019061035e919061363d565b610cb8565b005b61037f600480360381019061037a9190613463565b610cd8565b60405161038c9190613622565b60405180910390f35b6103af60048036038101906103aa9190613463565b610d49565b6040516103bc9190613529565b60405180910390f35b6103df60048036038101906103da9190613463565b610e63565b6040516103ec919061358c565b60405180910390f35b61040f600480360381019061040a9190613690565b610f15565b60405161041c9190613622565b60405180910390f35b61042d610fcd565b005b610437611055565b604051610444919061358c565b60405180910390f35b61045561107f565b6040516104629190613529565b60405180910390f35b61048560048036038101906104809190613463565b611111565b6040516104929190613529565b60405180910390f35b6104b560048036038101906104b091906136e9565b61122b565b005b6104d160048036038101906104cc9190613463565b611241565b6040516104de9190613529565b60405180910390f35b61050160048036038101906104fc919061385e565b61135b565b005b61051d60048036038101906105189190613463565b6113bd565b60405161052a9190613529565b60405180910390f35b61054d60048036038101906105489190613463565b611990565b60405161055a9190613529565b60405180910390f35b61057d60048036038101906105789190613463565b611aaa565b60405161058a9190613529565b60405180910390f35b6105ad60048036038101906105a891906138e1565b611bc4565b6040516105ba9190613412565b60405180910390f35b6105dd60048036038101906105d89190613463565b611c58565b6040516105ea9190613529565b60405180910390f35b61060d60048036038101906106089190613690565b611d72565b005b60007f780e9d63000000000000000000000000000000000000000000000000000000007bffffffffffffffffffffffffffffffffffffffffffffffffffffffff1916827bffffffffffffffffffffffffffffffffffffffffffffffffffffffff19161480610682575061068182611e6a565b5b9050919050565b606061079c826040518060400160405280601181526020017f42554c4c4c4f5450524f4f465f56455354000000000000000000000000000000815250600e805480602002602001604051908101604052809291908181526020016000905b8282101561079357838290600052602060002001805461070690613950565b80601f016020809104026020016040519081016040528092919081815260200182805461073290613950565b801561077f5780601f106107545761010080835404028352916020019161077f565b820191906000526020600020905b81548152906001019060200180831161076257829003601f168201915b5050505050815260200190600101906106e7565b50505050611f4c565b9050919050565b6060600080546107b290613950565b80601f01602080910402602001604051908101604052809291908181526020018280546107de90613950565b801561082b5780601f106108005761010080835404028352916020019161082b565b820191906000526020600020905b81548152906001019060200180831161080e57829003601f168201915b5050505050905090565b600061084082611fbb565b61087f576040517f08c379a0000000000000000000000000000000000000000000000000000000008152600401610876906139f4565b60405180910390fd5b6004600083815260200190815260200160002060009054906101000a900473ffffffffffffffffffffffffffffffffffffffff169050919050565b60006108c582610e63565b90508073ffffffffffffffffffffffffffffffffffffffff168373ffffffffffffffffffffffffffffffffffffffff161415610936576040517f08c379a000000000000000000000000000000000000000000000000000000000815260040161092d90613a86565b60405180910390fd5b8073ffffffffffffffffffffffffffffffffffffffff16610955612027565b73ffffffffffffffffffffffffffffffffffffffff16148061098457506109838161097e612027565b611bc4565b5b6109c3576040517f08c379a00000000000000000000000000000000000000000000000000000000081526004016109ba90613b18565b60405180910390fd5b6109cd838361202f565b505050565b6000600880549050905090565b6109f06109ea612027565b826120e8565b610a2f576040517f08c379a0000000000000000000000000000000000000000000000000000000008152600401610a2690613baa565b60405180910390fd5b610a3a8383836121c6565b505050565b6060610b52826040518060400160405280600b81526020017f4e49474854564953494f4e000000000000000000000000000000000000000000815250600d805480602002602001604051908101604052809291908181526020016000905b82821015610b49578382906000526020600020018054610abc90613950565b80601f0160208091040260200160405190810160405280929190818152602001828054610ae890613950565b8015610b355780601f10610b0a57610100808354040283529160200191610b35565b820191906000526020600020905b815481529060010190602001808311610b1857829003601f168201915b505050505081526020019060010190610a9d565b50505050611f4c565b9050919050565b6000610b6483610f15565b8210610ba5576040517f08c379a0000000000000000000000000000000000000000000000000000000008152600401610b9c90613c3c565b60405180910390fd5b600660008473ffffffffffffffffffffffffffffffffffffffff1673ffffffffffffffffffffffffffffffffffffffff168152602001908152602001600020600083815260200190815260200160002054905092915050565b6002600a541415610c44576040517f08c379a0000000000000000000000000000000000000000000000000000000008152600401610c3b90613ca8565b60405180910390fd5b6002600a81905550600081118015610c5d5750611e6281105b610c9c576040517f08c379a0000000000000000000000000000000000000000000000000000000008152600401610c9390613d14565b60405180910390fd5b610cad610ca7612027565b8261242d565b6001600a8190555050565b610cd38383836040518060200160405280600081525061135b565b505050565b6000610ce26109d2565b8210610d23576040517f08c379a0000000000000000000000000000000000000000000000000000000008152600401610d1a90613da6565b60405180910390fd5b60088281548110610d3757610d36613dc6565b5b90600052602060002001549050919050565b6060610e5c826040518060400160405280600881526020017f48414e445f47554e0000000000000000000000000000000000000000000000008152506010805480602002602001604051908101604052809291908181526020016000905b82821015610e53578382906000526020600020018054610dc690613950565b80601f0160208091040260200160405190810160405280929190818152602001828054610df290613950565b8015610e3f5780601f10610e1457610100808354040283529160200191610e3f565b820191906000526020600020905b815481529060010190602001808311610e2257829003601f168201915b505050505081526020019060010190610da7565b50505050611f4c565b9050919050565b6000806002600084815260200190815260200160002060009054906101000a900473ffffffffffffffffffffffffffffffffffffffff169050600073ffffffffffffffffffffffffffffffffffffffff168173ffffffffffffffffffffffffffffffffffffffff161415610f0c576040517f08c379a0000000000000000000000000000000000000000000000000000000008152600401610f0390613e67565b60405180910390fd5b80915050919050565b60008073ffffffffffffffffffffffffffffffffffffffff168273ffffffffffffffffffffffffffffffffffffffff161415610f86576040517f08c379a0000000000000000000000000000000000000000000000000000000008152600401610f7d90613ef9565b60405180910390fd5b600360008373ffffffffffffffffffffffffffffffffffffffff1673ffffffffffffffffffffffffffffffffffffffff168152602001908152602001600020549050919050565b610fd5612027565b73ffffffffffffffffffffffffffffffffffffffff16610ff3611055565b73ffffffffffffffffffffffffffffffffffffffff1614611049576040517f08c379a000000000000000000000000000000000000000000000000000000000815260040161104090613f65565b60405180910390fd5b611053600061244b565b565b6000600b60009054906101000a900473ffffffffffffffffffffffffffffffffffffffff16905090565b60606001805461108e90613950565b80601f01602080910402602001604051908101604052809291908181526020018280546110ba90613950565b80156111075780601f106110dc57610100808354040283529160200191611107565b820191906000526020600020905b8154815290600101906020018083116110ea57829003601f168201915b5050505050905090565b6060611224826040518060400160405280600881526020017f4752454e414445530000000000000000000000000000000000000000000000008152506012805480602002602001604051908101604052809291908181526020016000905b8282101561121b57838290600052602060002001805461118e90613950565b80601f01602080910402602001604051908101604052809291908181526020018280546111ba90613950565b80156112075780601f106111dc57610100808354040283529160200191611207565b820191906000526020600020905b8154815290600101906020018083116111ea57829003601f168201915b50505050508152602001906001019061116f565b50505050611f4c565b9050919050565b61123d611236612027565b8383612511565b5050565b6060611354826040518060400160405280600581526020017f53484f45530000000000000000000000000000000000000000000000000000008152506013805480602002602001604051908101604052809291908181526020016000905b8282101561134b5783829060005260206000200180546112be90613950565b80601f01602080910402602001604051908101604052809291908181526020018280546112ea90613950565b80156113375780601f1061130c57610100808354040283529160200191611337565b820191906000526020600020905b81548152906001019060200180831161131a57829003601f168201915b50505050508152602001906001019061129f565b50505050611f4c565b9050919050565b61136c611366612027565b836120e8565b6113ab576040517f08c379a00000000000000000000000000000000000000000000000000000000081526004016113a290613baa565b60405180910390fd5b6113b78484848461267e565b50505050565b60606113c7613336565b60405180610120016040528060fd8152602001614c2f60fd9139816000601381106113f5576113f4613dc6565b5b602002018190525061140683611c58565b8160016013811061141a57611419613dc6565b5b6020020181905250604051806060016040528060288152602001614c07602891398160026013811061144f5761144e613dc6565b5b602002018190525061146083610a3f565b8160036013811061147457611473613dc6565b5b6020020181905250604051806060016040528060288152602001614ad360289139816004601381106114a9576114a8613dc6565b5b60200201819052506114ba83610689565b816005601381106114ce576114cd613dc6565b5b6020020181905250604051806060016040528060288152602001614b4d602891398160066013811061150357611502613dc6565b5b602002018190525061151483611990565b8160076013811061152857611527613dc6565b5b6020020181905250604051806060016040528060298152602001614b75602991398160086013811061155d5761155c613dc6565b5b602002018190525061156e83610d49565b8160096013811061158257611581613dc6565b5b6020020181905250604051806060016040528060298152602001614b246029913981600a601381106115b7576115b6613dc6565b5b60200201819052506115c883611aaa565b81600b601381106115dc576115db613dc6565b5b6020020181905250604051806060016040528060298152602001614b9e6029913981600e6013811061161157611610613dc6565b5b602002018190525061162283611111565b81600f6013811061163657611635613dc6565b5b6020020181905250604051806060016040528060298152602001614afb602991398160106013811061166b5761166a613dc6565b5b602002018190525061167c83611241565b816011601381106116905761168f613dc6565b5b60200201819052506040518060400160405280600d81526020017f3c2f746578743e3c2f7376673e00000000000000000000000000000000000000815250816012601381106116e2576116e1613dc6565b5b6020020181905250600081600060138110611700576116ff613dc6565b5b60200201518260016013811061171957611718613dc6565b5b60200201518360026013811061173257611731613dc6565b5b60200201518460036013811061174b5761174a613dc6565b5b60200201518560046013811061176457611763613dc6565b5b60200201518660056013811061177d5761177c613dc6565b5b60200201518760066013811061179657611795613dc6565b5b6020020151886007601381106117af576117ae613dc6565b5b6020020151896008601381106117c8576117c7613dc6565b5b60200201516040516020016117e599989796959493929190613fc1565b6040516020818303038152906040529050808260096013811061180b5761180a613dc6565b5b602002015183600a6013811061182457611823613dc6565b5b602002015184600b6013811061183d5761183c613dc6565b5b602002015185600c6013811061185657611855613dc6565b5b602002015186600d6013811061186f5761186e613dc6565b5b602002015187600e6013811061188857611887613dc6565b5b602002015188600f601381106118a1576118a0613dc6565b5b6020020151896010601381106118ba576118b9613dc6565b5b60200201518a6011601381106118d3576118d2613dc6565b5b60200201518b6012601381106118ec576118eb613dc6565b5b602002015160405160200161190b9b9a99989796959493929190614040565b6040516020818303038152906040529050611925816126da565b600061196161193386612773565b61193c846128d4565b60405160200161194d9291906142c7565b6040516020818303038152906040526128d4565b9050806040516020016119749190614358565b6040516020818303038152906040529150819350505050919050565b6060611aa3826040518060400160405280600581526020017f4b4e494645000000000000000000000000000000000000000000000000000000815250600f805480602002602001604051908101604052809291908181526020016000905b82821015611a9a578382906000526020600020018054611a0d90613950565b80601f0160208091040260200160405190810160405280929190818152602001828054611a3990613950565b8015611a865780601f10611a5b57610100808354040283529160200191611a86565b820191906000526020600020905b815481529060010190602001808311611a6957829003601f168201915b5050505050815260200190600101906119ee565b50505050611f4c565b9050919050565b6060611bbd826040518060400160405280600681526020017f5249464c455300000000000000000000000000000000000000000000000000008152506011805480602002602001604051908101604052809291908181526020016000905b82821015611bb4578382906000526020600020018054611b2790613950565b80601f0160208091040260200160405190810160405280929190818152602001828054611b5390613950565b8015611ba05780601f10611b7557610100808354040283529160200191611ba0565b820191906000526020600020905b815481529060010190602001808311611b8357829003601f168201915b505050505081526020019060010190611b08565b50505050611f4c565b9050919050565b6000600560008473ffffffffffffffffffffffffffffffffffffffff1673ffffffffffffffffffffffffffffffffffffffff16815260200190815260200160002060008373ffffffffffffffffffffffffffffffffffffffff1673ffffffffffffffffffffffffffffffffffffffff16815260200190815260200160002060009054906101000a900460ff16905092915050565b6060611d6b826040518060400160405280600681526020017f48454c4d45540000000000000000000000000000000000000000000000000000815250600c805480602002602001604051908101604052809291908181526020016000905b82821015611d62578382906000526020600020018054611cd590613950565b80601f0160208091040260200160405190810160405280929190818152602001828054611d0190613950565b8015611d4e5780601f10611d2357610100808354040283529160200191611d4e565b820191906000526020600020905b815481529060010190602001808311611d3157829003601f168201915b505050505081526020019060010190611cb6565b50505050611f4c565b9050919050565b611d7a612027565b73ffffffffffffffffffffffffffffffffffffffff16611d98611055565b73ffffffffffffffffffffffffffffffffffffffff1614611dee576040517f08c379a0000000000000000000000000000000000000000000000000000000008152600401611de590613f65565b60405180910390fd5b600073ffffffffffffffffffffffffffffffffffffffff168173ffffffffffffffffffffffffffffffffffffffff161415611e5e576040517f08c379a0000000000000000000000000000000000000000000000000000000008152600401611e55906143ec565b60405180910390fd5b611e678161244b565b50565b60007f80ac58cd000000000000000000000000000000000000000000000000000000007bffffffffffffffffffffffffffffffffffffffffffffffffffffffff1916827bffffffffffffffffffffffffffffffffffffffffffffffffffffffff19161480611f3557507f5b5e139f000000000000000000000000000000000000000000000000000000007bffffffffffffffffffffffffffffffffffffffffffffffffffffffff1916827bffffffffffffffffffffffffffffffffffffffffffffffffffffffff1916145b80611f455750611f4482612a6c565b5b9050919050565b60606000611f8284611f5d87612773565b604051602001611f6e92919061440c565b604051602081830303815290604052612ad6565b9050600083845183611f94919061445f565b81518110611fa557611fa4613dc6565b5b6020026020010151905080925050509392505050565b60008073ffffffffffffffffffffffffffffffffffffffff166002600084815260200190815260200160002060009054906101000a900473ffffffffffffffffffffffffffffffffffffffff1673ffffffffffffffffffffffffffffffffffffffff1614159050919050565b600033905090565b816004600083815260200190815260200160002060006101000a81548173ffffffffffffffffffffffffffffffffffffffff021916908373ffffffffffffffffffffffffffffffffffffffff160217905550808273ffffffffffffffffffffffffffffffffffffffff166120a283610e63565b73ffffffffffffffffffffffffffffffffffffffff167f8c5be1e5ebec7d5bd14f71427d1e84f3dd0314c0f7b2291e5b200ac8c7c3b92560405160405180910390a45050565b60006120f382611fbb565b612132576040517f08c379a000000000000000000000000000000000000000000000000000000000815260040161212990614502565b60405180910390fd5b600061213d83610e63565b90508073ffffffffffffffffffffffffffffffffffffffff168473ffffffffffffffffffffffffffffffffffffffff1614806121ac57508373ffffffffffffffffffffffffffffffffffffffff1661219484610835565b73ffffffffffffffffffffffffffffffffffffffff16145b806121bd57506121bc8185611bc4565b5b91505092915050565b8273ffffffffffffffffffffffffffffffffffffffff166121e682610e63565b73ffffffffffffffffffffffffffffffffffffffff161461223c576040517f08c379a000000000000000000000000000000000000000000000000000000000815260040161223390614594565b60405180910390fd5b600073ffffffffffffffffffffffffffffffffffffffff168273ffffffffffffffffffffffffffffffffffffffff1614156122ac576040517f08c379a00000000000000000000000000000000000000000000000000000000081526004016122a390614626565b60405180910390fd5b6122b7838383612b09565b6122c260008261202f565b6001600360008573ffffffffffffffffffffffffffffffffffffffff1673ffffffffffffffffffffffffffffffffffffffff16815260200190815260200160002060008282546123129190614675565b925050819055506001600360008473ffffffffffffffffffffffffffffffffffffffff1673ffffffffffffffffffffffffffffffffffffffff168152602001908152602001600020600082825461236991906146a9565b92505081905550816002600083815260200190815260200160002060006101000a81548173ffffffffffffffffffffffffffffffffffffffff021916908373ffffffffffffffffffffffffffffffffffffffff160217905550808273ffffffffffffffffffffffffffffffffffffffff168473ffffffffffffffffffffffffffffffffffffffff167fddf252ad1be2c89b69c2b068fc378daa952ba7f163c4a11628f55a4df523b3ef60405160405180910390a4612428838383612c1d565b505050565b612447828260405180602001604052806000815250612c22565b5050565b6000600b60009054906101000a900473ffffffffffffffffffffffffffffffffffffffff16905081600b60006101000a81548173ffffffffffffffffffffffffffffffffffffffff021916908373ffffffffffffffffffffffffffffffffffffffff1602179055508173ffffffffffffffffffffffffffffffffffffffff168173ffffffffffffffffffffffffffffffffffffffff167f8be0079c531659141344cd1fd0a4f28419497f9722a3daafe3b4186f6b6457e060405160405180910390a35050565b8173ffffffffffffffffffffffffffffffffffffffff168373ffffffffffffffffffffffffffffffffffffffff161415612580576040517f08c379a00000000000000000000000000000000000000000000000000000000081526004016125779061474b565b60405180910390fd5b80600560008573ffffffffffffffffffffffffffffffffffffffff1673ffffffffffffffffffffffffffffffffffffffff16815260200190815260200160002060008473ffffffffffffffffffffffffffffffffffffffff1673ffffffffffffffffffffffffffffffffffffffff16815260200190815260200160002060006101000a81548160ff0219169083151502179055508173ffffffffffffffffffffffffffffffffffffffff168373ffffffffffffffffffffffffffffffffffffffff167f17307eab39ab6107e8899845ad3d59bd9653f200f220920489ca2b5937696c31836040516126719190613412565b60405180910390a3505050565b6126898484846121c6565b61269584848484612c7d565b6126d4576040517f08c379a00000000000000000000000000000000000000000000000000000000081526004016126cb906147dd565b60405180910390fd5b50505050565b612770816040516024016126ee9190613529565b6040516020818303038152906040527f41304fac000000000000000000000000000000000000000000000000000000007bffffffffffffffffffffffffffffffffffffffffffffffffffffffff19166020820180517bffffffffffffffffffffffffffffffffffffffffffffffffffffffff8381831617835250505050612e05565b50565b606060008214156127bb576040518060400160405280600181526020017f300000000000000000000000000000000000000000000000000000000000000081525090506128cf565b600082905060005b600082146127ed5780806127d6906147fd565b915050600a826127e69190614846565b91506127c3565b60008167ffffffffffffffff81111561280957612808613733565b5b6040519080825280601f01601f19166020018201604052801561283b5781602001600182028036833780820191505090505b5090505b600085146128c8576001826128549190614675565b9150600a85612863919061445f565b603061286f91906146a9565b60f81b81838151811061288557612884613dc6565b5b60200101907effffffffffffffffffffffffffffffffffffffffffffffffffffffffffffff1916908160001a905350600a856128c19190614846565b945061283f565b8093505050505b919050565b606060008251905060008114156128fd5760405180602001604052806000815250915050612a67565b6000600360028361290e91906146a9565b6129189190614846565b60046129249190614877565b9050600060208261293591906146a9565b67ffffffffffffffff81111561294e5761294d613733565b5b6040519080825280601f01601f1916602001820160405280156129805781602001600182028036833780820191505090505b5090506000604051806060016040528060408152602001614bc7604091399050600181016020830160005b86811015612a245760038101905062ffffff818a015116603f8160121c168401518060081b905060ff603f83600c1c1686015116810190508060081b905060ff603f8360061c1686015116810190508060081b905060ff603f831686015116810190508060e01b905080845260048401935050506129ab565b506003860660018114612a3e5760028114612a4e57612a59565b613d3d60f01b6002830352612a59565b603d60f81b60018303525b508484525050819450505050505b919050565b60007f01ffc9a7000000000000000000000000000000000000000000000000000000007bffffffffffffffffffffffffffffffffffffffffffffffffffffffff1916827bffffffffffffffffffffffffffffffffffffffffffffffffffffffff1916149050919050565b600081604051602001612ae991906148d1565b6040516020818303038152906040528051906020012060001c9050919050565b612b14838383612e2e565b600073ffffffffffffffffffffffffffffffffffffffff168373ffffffffffffffffffffffffffffffffffffffff161415612b5757612b5281612e33565b612b96565b8173ffffffffffffffffffffffffffffffffffffffff168373ffffffffffffffffffffffffffffffffffffffff1614612b9557612b948382612e7c565b5b5b600073ffffffffffffffffffffffffffffffffffffffff168273ffffffffffffffffffffffffffffffffffffffff161415612bd957612bd481612fe9565b612c18565b8273ffffffffffffffffffffffffffffffffffffffff168273ffffffffffffffffffffffffffffffffffffffff1614612c1757612c1682826130ba565b5b5b505050565b505050565b612c2c8383613139565b612c396000848484612c7d565b612c78576040517f08c379a0000000000000000000000000000000000000000000000000000000008152600401612c6f906147dd565b60405180910390fd5b505050565b6000612c9e8473ffffffffffffffffffffffffffffffffffffffff16613313565b15612df8578373ffffffffffffffffffffffffffffffffffffffff1663150b7a02612cc7612027565b8786866040518563ffffffff1660e01b8152600401612ce9949392919061493d565b6020604051808303816000875af1925050508015612d2557506040513d601f19601f82011682018060405250810190612d22919061499e565b60015b612da8573d8060008114612d55576040519150601f19603f3d011682016040523d82523d6000602084013e612d5a565b606091505b50600081511415612da0576040517f08c379a0000000000000000000000000000000000000000000000000000000008152600401612d97906147dd565b60405180910390fd5b805181602001fd5b63150b7a0260e01b7bffffffffffffffffffffffffffffffffffffffffffffffffffffffff1916817bffffffffffffffffffffffffffffffffffffffffffffffffffffffff191614915050612dfd565b600190505b949350505050565b60008151905060006a636f6e736f6c652e6c6f679050602083016000808483855afa5050505050565b505050565b6008805490506009600083815260200190815260200160002081905550600881908060018154018082558091505060019003906000526020600020016000909190919091505550565b60006001612e8984610f15565b612e939190614675565b9050600060076000848152602001908152602001600020549050818114612f78576000600660008673ffffffffffffffffffffffffffffffffffffffff1673ffffffffffffffffffffffffffffffffffffffff168152602001908152602001600020600084815260200190815260200160002054905080600660008773ffffffffffffffffffffffffffffffffffffffff1673ffffffffffffffffffffffffffffffffffffffff168152602001908152602001600020600084815260200190815260200160002081905550816007600083815260200190815260200160002081905550505b6007600084815260200190815260200160002060009055600660008573ffffffffffffffffffffffffffffffffffffffff1673ffffffffffffffffffffffffffffffffffffffff16815260200190815260200160002060008381526020019081526020016000206000905550505050565b60006001600880549050612ffd9190614675565b905060006009600084815260200190815260200160002054905060006008838154811061302d5761302c613dc6565b5b90600052602060002001549050806008838154811061304f5761304e613dc6565b5b90600052602060002001819055508160096000838152602001908152602001600020819055506009600085815260200190815260200160002060009055600880548061309e5761309d6149cb565b5b6001900381819060005260206000200160009055905550505050565b60006130c583610f15565b905081600660008573ffffffffffffffffffffffffffffffffffffffff1673ffffffffffffffffffffffffffffffffffffffff168152602001908152602001600020600083815260200190815260200160002081905550806007600084815260200190815260200160002081905550505050565b600073ffffffffffffffffffffffffffffffffffffffff168273ffffffffffffffffffffffffffffffffffffffff1614156131a9576040517f08c379a00000000000000000000000000000000000000000000000000000000081526004016131a090614a46565b60405180910390fd5b6131b281611fbb565b156131f2576040517f08c379a00000000000000000000000000000000000000000000000000000000081526004016131e990614ab2565b60405180910390fd5b6131fe60008383612b09565b6001600360008473ffffffffffffffffffffffffffffffffffffffff1673ffffffffffffffffffffffffffffffffffffffff168152602001908152602001600020600082825461324e91906146a9565b92505081905550816002600083815260200190815260200160002060006101000a81548173ffffffffffffffffffffffffffffffffffffffff021916908373ffffffffffffffffffffffffffffffffffffffff160217905550808273ffffffffffffffffffffffffffffffffffffffff16600073ffffffffffffffffffffffffffffffffffffffff167fddf252ad1be2c89b69c2b068fc378daa952ba7f163c4a11628f55a4df523b3ef60405160405180910390a461330f60008383612c1d565b5050565b6000808273ffffffffffffffffffffffffffffffffffffffff163b119050919050565b6040518061026001604052806013905b60608152602001906001900390816133465790505090565b6000604051905090565b600080fd5b600080fd5b60007fffffffff0000000000000000000000000000000000000000000000000000000082169050919050565b6133a781613372565b81146133b257600080fd5b50565b6000813590506133c48161339e565b92915050565b6000602082840312156133e0576133df613368565b5b60006133ee848285016133b5565b91505092915050565b60008115159050919050565b61340c816133f7565b82525050565b60006020820190506134276000830184613403565b92915050565b6000819050919050565b6134408161342d565b811461344b57600080fd5b50565b60008135905061345d81613437565b92915050565b60006020828403121561347957613478613368565b5b60006134878482850161344e565b91505092915050565b600081519050919050565b600082825260208201905092915050565b60005b838110156134ca5780820151818401526020810190506134af565b838111156134d9576000848401525b50505050565b6000601f19601f8301169050919050565b60006134fb82613490565b613505818561349b565b93506135158185602086016134ac565b61351e816134df565b840191505092915050565b6000602082019050818103600083015261354381846134f0565b905092915050565b600073ffffffffffffffffffffffffffffffffffffffff82169050919050565b60006135768261354b565b9050919050565b6135868161356b565b82525050565b60006020820190506135a1600083018461357d565b92915050565b6135b08161356b565b81146135bb57600080fd5b50565b6000813590506135cd816135a7565b92915050565b600080604083850312156135ea576135e9613368565b5b60006135f8858286016135be565b92505060206136098582860161344e565b9150509250929050565b61361c8161342d565b82525050565b60006020820190506136376000830184613613565b92915050565b60008060006060848603121561365657613655613368565b5b6000613664868287016135be565b9350506020613675868287016135be565b92505060406136868682870161344e565b9150509250925092565b6000602082840312156136a6576136a5613368565b5b60006136b4848285016135be565b91505092915050565b6136c6816133f7565b81146136d157600080fd5b50565b6000813590506136e3816136bd565b92915050565b60008060408385031215613700576136ff613368565b5b600061370e858286016135be565b925050602061371f858286016136d4565b9150509250929050565b600080fd5b600080fd5b7f4e487b7100000000000000000000000000000000000000000000000000000000600052604160045260246000fd5b61376b826134df565b810181811067ffffffffffffffff8211171561378a57613789613733565b5b80604052505050565b600061379d61335e565b90506137a98282613762565b919050565b600067ffffffffffffffff8211156137c9576137c8613733565b5b6137d2826134df565b9050602081019050919050565b82818337600083830152505050565b60006138016137fc846137ae565b613793565b90508281526020810184848401111561381d5761381c61372e565b5b6138288482856137df565b509392505050565b600082601f83011261384557613844613729565b5b81356138558482602086016137ee565b91505092915050565b6000806000806080858703121561387857613877613368565b5b6000613886878288016135be565b9450506020613897878288016135be565b93505060406138a88782880161344e565b925050606085013567ffffffffffffffff8111156138c9576138c861336d565b5b6138d587828801613830565b91505092959194509250565b600080604083850312156138f8576138f7613368565b5b6000613906858286016135be565b9250506020613917858286016135be565b9150509250929050565b7f4e487b7100000000000000000000000000000000000000000000000000000000600052602260045260246000fd5b6000600282049050600182168061396857607f821691505b6020821081141561397c5761397b613921565b5b50919050565b7f4552433732313a20617070726f76656420717565727920666f72206e6f6e657860008201527f697374656e7420746f6b656e0000000000000000000000000000000000000000602082015250565b60006139de602c8361349b565b91506139e982613982565b604082019050919050565b60006020820190508181036000830152613a0d816139d1565b9050919050565b7f4552433732313a20617070726f76616c20746f2063757272656e74206f776e6560008201527f7200000000000000000000000000000000000000000000000000000000000000602082015250565b6000613a7060218361349b565b9150613a7b82613a14565b604082019050919050565b60006020820190508181036000830152613a9f81613a63565b9050919050565b7f4552433732313a20617070726f76652063616c6c6572206973206e6f74206f7760008201527f6e6572206e6f7220617070726f76656420666f7220616c6c0000000000000000602082015250565b6000613b0260388361349b565b9150613b0d82613aa6565b604082019050919050565b60006020820190508181036000830152613b3181613af5565b9050919050565b7f4552433732313a207472616e736665722063616c6c6572206973206e6f74206f60008201527f776e6572206e6f7220617070726f766564000000000000000000000000000000602082015250565b6000613b9460318361349b565b9150613b9f82613b38565b604082019050919050565b60006020820190508181036000830152613bc381613b87565b9050919050565b7f455243373231456e756d657261626c653a206f776e657220696e646578206f7560008201527f74206f6620626f756e6473000000000000000000000000000000000000000000602082015250565b6000613c26602b8361349b565b9150613c3182613bca565b604082019050919050565b60006020820190508181036000830152613c5581613c19565b9050919050565b7f5265656e7472616e637947756172643a207265656e7472616e742063616c6c00600082015250565b6000613c92601f8361349b565b9150613c9d82613c5c565b602082019050919050565b60006020820190508181036000830152613cc181613c85565b9050919050565b7f546f6b656e20494420696e76616c696400000000000000000000000000000000600082015250565b6000613cfe60108361349b565b9150613d0982613cc8565b602082019050919050565b60006020820190508181036000830152613d2d81613cf1565b9050919050565b7f455243373231456e756d657261626c653a20676c6f62616c20696e646578206f60008201527f7574206f6620626f756e64730000000000000000000000000000000000000000602082015250565b6000613d90602c8361349b565b9150613d9b82613d34565b604082019050919050565b60006020820190508181036000830152613dbf81613d83565b9050919050565b7f4e487b7100000000000000000000000000000000000000000000000000000000600052603260045260246000fd5b7f4552433732313a206f776e657220717565727920666f72206e6f6e657869737460008201527f656e7420746f6b656e0000000000000000000000000000000000000000000000602082015250565b6000613e5160298361349b565b9150613e5c82613df5565b604082019050919050565b60006020820190508181036000830152613e8081613e44565b9050919050565b7f4552433732313a2062616c616e636520717565727920666f7220746865207a6560008201527f726f206164647265737300000000000000000000000000000000000000000000602082015250565b6000613ee3602a8361349b565b9150613eee82613e87565b604082019050919050565b60006020820190508181036000830152613f1281613ed6565b9050919050565b7f4f776e61626c653a2063616c6c6572206973206e6f7420746865206f776e6572600082015250565b6000613f4f60208361349b565b9150613f5a82613f19565b602082019050919050565b60006020820190508181036000830152613f7e81613f42565b9050919050565b600081905092915050565b6000613f9b82613490565b613fa58185613f85565b9350613fb58185602086016134ac565b80840191505092915050565b6000613fcd828c613f90565b9150613fd9828b613f90565b9150613fe5828a613f90565b9150613ff18289613f90565b9150613ffd8288613f90565b91506140098287613f90565b91506140158286613f90565b91506140218285613f90565b915061402d8284613f90565b91508190509a9950505050505050505050565b600061404c828e613f90565b9150614058828d613f90565b9150614064828c613f90565b9150614070828b613f90565b915061407c828a613f90565b91506140888289613f90565b91506140948288613f90565b91506140a08287613f90565b91506140ac8286613f90565b91506140b88285613f90565b91506140c48284613f90565b91508190509c9b505050505050505050505050565b7f7b226e616d65223a202244657620230000000000000000000000000000000000600082015250565b600061410f600f83613f85565b915061411a826140d9565b600f82019050919050565b7f222c20226465736372697074696f6e223a2022446576656c6f7065727320617260008201527f6f756e642074686520776f726c6420617265207469726564206f6620776f726b60208201527f696e6720616e6420636f6e747269627574696e672074686569722074696d652060408201527f616e64206566666f727420746f20656e726963682074686520746f702031252e60608201527f204a6f696e20746865206d6f76656d656e74207468617420697320636f6d6d7560808201527f6e697479206f776e65642c206275696c64696e6720746865206675747572652060a08201527f66726f6d2074686520626f74746f6d2075702e222c2022696d616765223a202260c08201527f646174613a696d6167652f7376672b786d6c3b6261736536342c00000000000060e082015250565b600061426560fa83613f85565b915061427082614125565b60fa82019050919050565b7f227d000000000000000000000000000000000000000000000000000000000000600082015250565b60006142b1600283613f85565b91506142bc8261427b565b600282019050919050565b60006142d282614102565b91506142de8285613f90565b91506142e982614258565b91506142f58284613f90565b9150614300826142a4565b91508190509392505050565b7f646174613a6170706c69636174696f6e2f6a736f6e3b6261736536342c000000600082015250565b6000614342601d83613f85565b915061434d8261430c565b601d82019050919050565b600061436382614335565b915061436f8284613f90565b915081905092915050565b7f4f776e61626c653a206e6577206f776e657220697320746865207a65726f206160008201527f6464726573730000000000000000000000000000000000000000000000000000602082015250565b60006143d660268361349b565b91506143e18261437a565b604082019050919050565b60006020820190508181036000830152614405816143c9565b9050919050565b60006144188285613f90565b91506144248284613f90565b91508190509392505050565b7f4e487b7100000000000000000000000000000000000000000000000000000000600052601260045260246000fd5b600061446a8261342d565b91506144758361342d565b92508261448557614484614430565b5b828206905092915050565b7f4552433732313a206f70657261746f7220717565727920666f72206e6f6e657860008201527f697374656e7420746f6b656e0000000000000000000000000000000000000000602082015250565b60006144ec602c8361349b565b91506144f782614490565b604082019050919050565b6000602082019050818103600083015261451b816144df565b9050919050565b7f4552433732313a207472616e736665722066726f6d20696e636f72726563742060008201527f6f776e6572000000000000000000000000000000000000000000000000000000602082015250565b600061457e60258361349b565b915061458982614522565b604082019050919050565b600060208201905081810360008301526145ad81614571565b9050919050565b7f4552433732313a207472616e7366657220746f20746865207a65726f2061646460008201527f7265737300000000000000000000000000000000000000000000000000000000602082015250565b600061461060248361349b565b915061461b826145b4565b604082019050919050565b6000602082019050818103600083015261463f81614603565b9050919050565b7f4e487b7100000000000000000000000000000000000000000000000000000000600052601160045260246000fd5b60006146808261342d565b915061468b8361342d565b92508282101561469e5761469d614646565b5b828203905092915050565b60006146b48261342d565b91506146bf8361342d565b9250827fffffffffffffffffffffffffffffffffffffffffffffffffffffffffffffffff038211156146f4576146f3614646565b5b828201905092915050565b7f4552433732313a20617070726f766520746f2063616c6c657200000000000000600082015250565b600061473560198361349b565b9150614740826146ff565b602082019050919050565b6000602082019050818103600083015261476481614728565b9050919050565b7f4552433732313a207472616e7366657220746f206e6f6e20455243373231526560008201527f63656976657220696d706c656d656e7465720000000000000000000000000000602082015250565b60006147c760328361349b565b91506147d28261476b565b604082019050919050565b600060208201905081810360008301526147f6816147ba565b9050919050565b60006148088261342d565b91507fffffffffffffffffffffffffffffffffffffffffffffffffffffffffffffffff82141561483b5761483a614646565b5b600182019050919050565b60006148518261342d565b915061485c8361342d565b92508261486c5761486b614430565b5b828204905092915050565b60006148828261342d565b915061488d8361342d565b9250817fffffffffffffffffffffffffffffffffffffffffffffffffffffffffffffffff04831182151516156148c6576148c5614646565b5b828202905092915050565b60006148dd8284613f90565b915081905092915050565b600081519050919050565b600082825260208201905092915050565b600061490f826148e8565b61491981856148f3565b93506149298185602086016134ac565b614932816134df565b840191505092915050565b6000608082019050614952600083018761357d565b61495f602083018661357d565b61496c6040830185613613565b818103606083015261497e8184614904565b905095945050505050565b6000815190506149988161339e565b92915050565b6000602082840312156149b4576149b3613368565b5b60006149c284828501614989565b91505092915050565b7f4e487b7100000000000000000000000000000000000000000000000000000000600052603160045260246000fd5b7f4552433732313a206d696e7420746f20746865207a65726f2061646472657373600082015250565b6000614a3060208361349b565b9150614a3b826149fa565b602082019050919050565b60006020820190508181036000830152614a5f81614a23565b9050919050565b7f4552433732313a20746f6b656e20616c7265616479206d696e74656400000000600082015250565b6000614a9c601c8361349b565b9150614aa782614a66565b602082019050919050565b60006020820190508181036000830152614acb81614a8f565b905091905056fe3c2f746578743e3c7465787420783d2231302220793d2236302220636c6173733d2262617365223e3c2f746578743e3c7465787420783d2231302220793d223136302220636c6173733d2262617365223e3c2f746578743e3c7465787420783d2231302220793d223132302220636c6173733d2262617365223e3c2f746578743e3c7465787420783d2231302220793d2238302220636c6173733d2262617365223e3c2f746578743e3c7465787420783d2231302220793d223130302220636c6173733d2262617365223e3c2f746578743e3c7465787420783d2231302220793d223134302220636c6173733d2262617365223e4142434445464748494a4b4c4d4e4f505152535455565758595a6162636465666768696a6b6c6d6e6f707172737475767778797a303132333435363738392b2f3c2f746578743e3c7465787420783d2231302220793d2234302220636c6173733d2262617365223e3c73766720786d6c6e733d22687474703a2f2f7777772e77332e6f72672f323030302f73766722207072657365727665417370656374526174696f3d22784d696e594d696e206d656574222076696577426f783d223020302033353020333530223e3c7374796c653e2e62617365207b2066696c6c3a20626c61636b3b20666f6e742d66616d696c793a2073657269663b20666f6e742d73697a653a20313470783b207d3c2f7374796c653e3c726563742077696474683d223130302522206865696768743d2231303025222066696c6c3d22776869746522202f3e3c7465787420783d2231302220793d2232302220636c6173733d2262617365223ea26469706673582212208ecb474f9f6b7e65276df3257c41cec689336cf4801c56c6e1799d7e0f81fbb364736f6c634300080a0033",
  "linkReferences": {},
  "deployedLinkReferences": {}
}