{
  "_format": "hh-sol-artifact-1",
  "contractName": "BattleGear",
  "sourceName": "contracts/BattleGear.sol",
  "abi": [
    {
      "inputs": [],
      "stateMutability": "nonpayable",
      "type": "constructor"
    },
    {
      "anonymous": false,
      "inputs": [
        {
          "indexed": true,
          "internalType": "address",
          "name": "owner",
          "type": "address"
        },
        {
          "indexed": true,
          "internalType": "address",
          "name": "approved",
          "type": "address"
        },
        {
          "indexed": true,
          "internalType": "uint256",
          "name": "tokenId",
          "type": "uint256"
        }
      ],
      "name": "Approval",
      "type": "event"
    },
    {
      "anonymous": false,
      "inputs": [
        {
          "indexed": true,
          "internalType": "address",
          "name": "owner",
          "type": "address"
        },
        {
          "indexed": true,
          "internalType": "address",
          "name": "operator",
          "type": "address"
        },
        {
          "indexed": false,
          "internalType": "bool",
          "name": "approved",
          "type": "bool"
        }
      ],
      "name": "ApprovalForAll",
      "type": "event"
    },
    {
      "anonymous": false,
      "inputs": [
        {
          "indexed": true,
          "internalType": "address",
          "name": "previousOwner",
          "type": "address"
        },
        {
          "indexed": true,
          "internalType": "address",
          "name": "newOwner",
          "type": "address"
        }
      ],
      "name": "OwnershipTransferred",
      "type": "event"
    },
    {
      "anonymous": false,
      "inputs": [
        {
          "indexed": true,
          "internalType": "address",
          "name": "from",
          "type": "address"
        },
        {
          "indexed": true,
          "internalType": "address",
          "name": "to",
          "type": "address"
        },
        {
          "indexed": true,
          "internalType": "uint256",
          "name": "tokenId",
          "type": "uint256"
        }
      ],
      "name": "Transfer",
      "type": "event"
    },
    {
      "inputs": [
        {
          "internalType": "address",
          "name": "to",
          "type": "address"
        },
        {
          "internalType": "uint256",
          "name": "tokenId",
          "type": "uint256"
        }
      ],
      "name": "approve",
      "outputs": [],
      "stateMutability": "nonpayable",
      "type": "function"
    },
    {
      "inputs": [
        {
          "internalType": "address",
          "name": "owner",
          "type": "address"
        }
      ],
      "name": "balanceOf",
      "outputs": [
        {
          "internalType": "uint256",
          "name": "",
          "type": "uint256"
        }
      ],
      "stateMutability": "view",
      "type": "function"
    },
    {
      "inputs": [],
      "name": "claim",
      "outputs": [],
      "stateMutability": "nonpayable",
      "type": "function"
    },
    {
      "inputs": [
        {
          "internalType": "uint256",
          "name": "tokenId",
          "type": "uint256"
        }
      ],
      "name": "getApproved",
      "outputs": [
        {
          "internalType": "address",
          "name": "",
          "type": "address"
        }
      ],
      "stateMutability": "view",
      "type": "function"
    },
    {
      "inputs": [
        {
          "internalType": "uint256",
          "name": "tokenId",
          "type": "uint256"
        }
      ],
      "name": "getBulletProofVest",
      "outputs": [
        {
          "internalType": "string",
          "name": "",
          "type": "string"
        }
      ],
      "stateMutability": "view",
      "type": "function"
    },
    {
      "inputs": [
        {
          "internalType": "uint256",
          "name": "tokenId",
          "type": "uint256"
        }
      ],
      "name": "getGrenades",
      "outputs": [
        {
          "internalType": "string",
          "name": "",
          "type": "string"
        }
      ],
      "stateMutability": "view",
      "type": "function"
    },
    {
      "inputs": [
        {
          "internalType": "uint256",
          "name": "tokenId",
          "type": "uint256"
        }
      ],
      "name": "getHandGun",
      "outputs": [
        {
          "internalType": "string",
          "name": "",
          "type": "string"
        }
      ],
      "stateMutability": "view",
      "type": "function"
    },
    {
      "inputs": [
        {
          "internalType": "uint256",
          "name": "tokenId",
          "type": "uint256"
        }
      ],
      "name": "getHelmet",
      "outputs": [
        {
          "internalType": "string",
          "name": "",
          "type": "string"
        }
      ],
      "stateMutability": "view",
      "type": "function"
    },
    {
      "inputs": [
        {
          "internalType": "uint256",
          "name": "tokenId",
          "type": "uint256"
        }
      ],
      "name": "getKnife",
      "outputs": [
        {
          "internalType": "string",
          "name": "",
          "type": "string"
        }
      ],
      "stateMutability": "view",
      "type": "function"
    },
    {
      "inputs": [
        {
          "internalType": "uint256",
          "name": "tokenId",
          "type": "uint256"
        }
      ],
      "name": "getNightVision",
      "outputs": [
        {
          "internalType": "string",
          "name": "",
          "type": "string"
        }
      ],
      "stateMutability": "view",
      "type": "function"
    },
    {
      "inputs": [
        {
          "internalType": "uint256",
          "name": "tokenId",
          "type": "uint256"
        }
      ],
      "name": "getRifles",
      "outputs": [
        {
          "internalType": "string",
          "name": "",
          "type": "string"
        }
      ],
      "stateMutability": "view",
      "type": "function"
    },
    {
      "inputs": [
        {
          "internalType": "uint256",
          "name": "tokenId",
          "type": "uint256"
        }
      ],
      "name": "getShoes",
      "outputs": [
        {
          "internalType": "string",
          "name": "",
          "type": "string"
        }
      ],
      "stateMutability": "view",
      "type": "function"
    },
    {
      "inputs": [
        {
          "internalType": "address",
          "name": "owner",
          "type": "address"
        },
        {
          "internalType": "address",
          "name": "operator",
          "type": "address"
        }
      ],
      "name": "isApprovedForAll",
      "outputs": [
        {
          "internalType": "bool",
          "name": "",
          "type": "bool"
        }
      ],
      "stateMutability": "view",
      "type": "function"
    },
    {
      "inputs": [],
      "name": "name",
      "outputs": [
        {
          "internalType": "string",
          "name": "",
          "type": "string"
        }
      ],
      "stateMutability": "view",
      "type": "function"
    },
    {
      "inputs": [],
      "name": "owner",
      "outputs": [
        {
          "internalType": "address",
          "name": "",
          "type": "address"
        }
      ],
      "stateMutability": "view",
      "type": "function"
    },
    {
      "inputs": [
        {
          "internalType": "uint256",
          "name": "tokenId",
          "type": "uint256"
        }
      ],
      "name": "ownerOf",
      "outputs": [
        {
          "internalType": "address",
          "name": "",
          "type": "address"
        }
      ],
      "stateMutability": "view",
      "type": "function"
    },
    {
      "inputs": [],
      "name": "renounceOwnership",
      "outputs": [],
      "stateMutability": "nonpayable",
      "type": "function"
    },
    {
      "inputs": [
        {
          "internalType": "address",
          "name": "from",
          "type": "address"
        },
        {
          "internalType": "address",
          "name": "to",
          "type": "address"
        },
        {
          "internalType": "uint256",
          "name": "tokenId",
          "type": "uint256"
        }
      ],
      "name": "safeTransferFrom",
      "outputs": [],
      "stateMutability": "nonpayable",
      "type": "function"
    },
    {
      "inputs": [
        {
          "internalType": "address",
          "name": "from",
          "type": "address"
        },
        {
          "internalType": "address",
          "name": "to",
          "type": "address"
        },
        {
          "internalType": "uint256",
          "name": "tokenId",
          "type": "uint256"
        },
        {
          "internalType": "bytes",
          "name": "_data",
          "type": "bytes"
        }
      ],
      "name": "safeTransferFrom",
      "outputs": [],
      "stateMutability": "nonpayable",
      "type": "function"
    },
    {
      "inputs": [
        {
          "internalType": "address",
          "name": "operator",
          "type": "address"
        },
        {
          "internalType": "bool",
          "name": "approved",
          "type": "bool"
        }
      ],
      "name": "setApprovalForAll",
      "outputs": [],
      "stateMutability": "nonpayable",
      "type": "function"
    },
    {
      "inputs": [
        {
          "internalType": "bytes4",
          "name": "interfaceId",
          "type": "bytes4"
        }
      ],
      "name": "supportsInterface",
      "outputs": [
        {
          "internalType": "bool",
          "name": "",
          "type": "bool"
        }
      ],
      "stateMutability": "view",
      "type": "function"
    },
    {
      "inputs": [],
      "name": "symbol",
      "outputs": [
        {
          "internalType": "string",
          "name": "",
          "type": "string"
        }
      ],
      "stateMutability": "view",
      "type": "function"
    },
    {
      "inputs": [
        {
          "internalType": "uint256",
          "name": "index",
          "type": "uint256"
        }
      ],
      "name": "tokenByIndex",
      "outputs": [
        {
          "internalType": "uint256",
          "name": "",
          "type": "uint256"
        }
      ],
      "stateMutability": "view",
      "type": "function"
    },
    {
      "inputs": [
        {
          "internalType": "address",
          "name": "owner",
          "type": "address"
        },
        {
          "internalType": "uint256",
          "name": "index",
          "type": "uint256"
        }
      ],
      "name": "tokenOfOwnerByIndex",
      "outputs": [
        {
          "internalType": "uint256",
          "name": "",
          "type": "uint256"
        }
      ],
      "stateMutability": "view",
      "type": "function"
    },
    {
      "inputs": [
        {
          "internalType": "uint256",
          "name": "tokenId",
          "type": "uint256"
        }
      ],
      "name": "tokenURI",
      "outputs": [
        {
          "internalType": "string",
          "name": "",
          "type": "string"
        }
      ],
      "stateMutability": "view",
      "type": "function"
    },
    {
      "inputs": [],
      "name": "totalSupply",
      "outputs": [
        {
          "internalType": "uint256",
          "name": "",
          "type": "uint256"
        }
      ],
      "stateMutability": "view",
      "type": "function"
    },
    {
      "inputs": [
        {
          "internalType": "address",
          "name": "from",
          "type": "address"
        },
        {
          "internalType": "address",
          "name": "to",
          "type": "address"
        },
        {
          "internalType": "uint256",
          "name": "tokenId",
          "type": "uint256"
        }
      ],
      "name": "transferFrom",
      "outputs": [],
      "stateMutability": "nonpayable",
      "type": "function"
    },
    {
      "inputs": [
        {
          "internalType": "address",
          "name": "newOwner",
          "type": "address"
        }
      ],
      "name": "transferOwnership",
      "outputs": [],
      "stateMutability": "nonpayable",
      "type": "function"
    }
  ],
  "bytecode": "0x60806040526040518060c001604052806040518060400160405280600481526020017f4e756c6c0000000000000000000000000000000000000000000000000000000081525081526020016040518060400160405280600481526020017f4e494a330000000000000000000000000000000000000000000000000000000081525081526020016040518060400160405280600581526020017f504153475400000000000000000000000000000000000000000000000000000081525081526020016040518060400160405280600381526020017f414348000000000000000000000000000000000000000000000000000000000081525081526020016040518060400160405280600381526020017f415445000000000000000000000000000000000000000000000000000000000081525081526020016040518060400160405280600381526020017f4543480000000000000000000000000000000000000000000000000000000000815250815250600d9060066200018192919062001029565b5060405180604001604052806040518060400160405280600481526020017f4e756c6c0000000000000000000000000000000000000000000000000000000081525081526020016040518060400160405280600581526020017f4e56473131000000000000000000000000000000000000000000000000000000815250815250600e9060026200021392919062001090565b5060405180608001604052806040518060400160405280600481526020017f4e756c6c0000000000000000000000000000000000000000000000000000000081525081526020016040518060400160405280600581526020017f42502d564900000000000000000000000000000000000000000000000000000081525081526020016040518060400160405280600581526020017f4250562d3400000000000000000000000000000000000000000000000000000081525081526020016040518060400160405280600581526020017f42502d4949000000000000000000000000000000000000000000000000000000815250815250600f9060046200031b929190620010f7565b506040518060e001604052806040518060400160405280600581526020017f4b756b726900000000000000000000000000000000000000000000000000000081525081526020016040518060400160405280600881526020017f4b6172616d62697400000000000000000000000000000000000000000000000081525081526020016040518060400160405280600481526020017f4b2d4d330000000000000000000000000000000000000000000000000000000081525081526020016040518060400160405280600481526020017f4b2d42310000000000000000000000000000000000000000000000000000000081525081526020016040518060400160405280600681526020017f4b2d57696e67000000000000000000000000000000000000000000000000000081525081526020016040518060400160405280600881526020017f4b2d54616374696300000000000000000000000000000000000000000000000081525081526020016040518060400160405280600581526020017f4b2d534d460000000000000000000000000000000000000000000000000000008152508152506010906007620004d49291906200115e565b506040518060a001604052806040518060400160405280600381526020017f504131000000000000000000000000000000000000000000000000000000000081525081526020016040518060400160405280600781526020017f502d476c6f636b0000000000000000000000000000000000000000000000000081525081526020016040518060400160405280600981526020017f502d42657265747461000000000000000000000000000000000000000000000081525081526020016040518060400160405280600381526020017f507834000000000000000000000000000000000000000000000000000000000081525081526020016040518060400160405280600781526020017f502d5374726f6d00000000000000000000000000000000000000000000000000815250815250601190600562000617929190620011c5565b506040518061020001604052806040518060400160405280600381526020017f4d4733000000000000000000000000000000000000000000000000000000000081525081526020016040518060400160405280600381526020017f41574d000000000000000000000000000000000000000000000000000000000081525081526020016040518060400160405280600781526020017f3938204b75727a0000000000000000000000000000000000000000000000000081525081526020016040518060400160405280600381526020017f414b4d000000000000000000000000000000000000000000000000000000000081525081526020016040518060400160405280600381526020017f415547000000000000000000000000000000000000000000000000000000000081525081526020016040518060400160405280600481526020017f4d3736320000000000000000000000000000000000000000000000000000000081525081526020016040518060400160405280600481526020017f473336430000000000000000000000000000000000000000000000000000000081525081526020016040518060400160405280600581526020017f47726f7a6100000000000000000000000000000000000000000000000000000081525081526020016040518060400160405280600281526020017f4b3200000000000000000000000000000000000000000000000000000000000081525081526020016040518060400160405280600581526020017f4d3136413400000000000000000000000000000000000000000000000000000081525081526020016040518060400160405280600481526020017f4d3431360000000000000000000000000000000000000000000000000000000081525081526020016040518060400160405280600481526020017f4d4b34370000000000000000000000000000000000000000000000000000000081525081526020016040518060400160405280600681526020017f534341522d4c000000000000000000000000000000000000000000000000000081525081526020016040518060400160405280600781526020017f313220426f72650000000000000000000000000000000000000000000000000081525081526020016040518060400160405280600381526020017f533437000000000000000000000000000000000000000000000000000000000081525081526020016040518060400160405280600581526020017f532d504b390000000000000000000000000000000000000000000000000000008152508152506012906010620009e49291906200122c565b506040518060a001604052806040518060400160405280600481526020017f4e756c6c0000000000000000000000000000000000000000000000000000000081525081526020016040518060400160405280600281526020017f473400000000000000000000000000000000000000000000000000000000000081525081526020016040518060400160405280600881526020017f436f636b7461696c00000000000000000000000000000000000000000000000081525081526020016040518060400160405280600781526020017f536d6f6b652d470000000000000000000000000000000000000000000000000081525081526020016040518060400160405280600881526020017f4465636f792d4734000000000000000000000000000000000000000000000000815250815250601390600562000b27929190620011c5565b50604051806101c001604052806040518060400160405280600581526020017f426f6f747300000000000000000000000000000000000000000000000000000081525081526020016040518060400160405280600881526020017f536e65616b65727300000000000000000000000000000000000000000000000081525081526020016040518060400160405280600b81526020017f42696b657220426f6f747300000000000000000000000000000000000000000081525081526020016040518060400160405280600781526020017f4c6f61666572730000000000000000000000000000000000000000000000000081525081526020016040518060400160405280600681526020017f48692d746f70000000000000000000000000000000000000000000000000000081525081526020016040518060400160405280600f81526020017f4361707461696e20747261696e6572000000000000000000000000000000000081525081526020016040518060400160405280600581526020017f4b69636b7300000000000000000000000000000000000000000000000000000081525081526020016040518060400160405280600d81526020017f4c65617468657220626f6f74730000000000000000000000000000000000000081525081526020016040518060400160405280600781526020017f53616e64616c730000000000000000000000000000000000000000000000000081525081526020016040518060400160405280600c81526020017f5363686f6f6c2053686f6573000000000000000000000000000000000000000081525081526020016040518060400160405280600381526020017f537061000000000000000000000000000000000000000000000000000000000081525081526020016040518060400160405280600781526020017f576f726b696e670000000000000000000000000000000000000000000000000081525081526020016040518060400160405280600881526020017f5761722d7a6f6e6500000000000000000000000000000000000000000000000081525081526020016040518060400160405280600581526020017f5a69702d75000000000000000000000000000000000000000000000000000000815250815250601490600e62000e7e92919062001293565b5034801562000e8c57600080fd5b506040518060400160405280600a81526020017f426174746c6547656172000000000000000000000000000000000000000000008152506040518060400160405280600281526020017f4247000000000000000000000000000000000000000000000000000000000000815250816000908051906020019062000f11929190620012fa565b50806001908051906020019062000f2a929190620012fa565b5050506001600a8190555062000f5562000f4962000f5b60201b60201c565b62000f6360201b60201c565b6200147d565b600033905090565b6000600b60009054906101000a900473ffffffffffffffffffffffffffffffffffffffff16905081600b60006101000a81548173ffffffffffffffffffffffffffffffffffffffff021916908373ffffffffffffffffffffffffffffffffffffffff1602179055508173ffffffffffffffffffffffffffffffffffffffff168173ffffffffffffffffffffffffffffffffffffffff167f8be0079c531659141344cd1fd0a4f28419497f9722a3daafe3b4186f6b6457e060405160405180910390a35050565b8280548282559060005260206000209081019282156200107d579160200282015b828111156200107c5782518290805190602001906200106b929190620012fa565b50916020019190600101906200104a565b5b5090506200108c91906200138b565b5090565b828054828255906000526020600020908101928215620010e4579160200282015b82811115620010e3578251829080519060200190620010d2929190620012fa565b5091602001919060010190620010b1565b5b509050620010f391906200138b565b5090565b8280548282559060005260206000209081019282156200114b579160200282015b828111156200114a57825182908051906020019062001139929190620012fa565b509160200191906001019062001118565b5b5090506200115a91906200138b565b5090565b828054828255906000526020600020908101928215620011b2579160200282015b82811115620011b1578251829080519060200190620011a0929190620012fa565b50916020019190600101906200117f565b5b509050620011c191906200138b565b5090565b82805482825590600052602060002090810192821562001219579160200282015b828111156200121857825182908051906020019062001207929190620012fa565b5091602001919060010190620011e6565b5b5090506200122891906200138b565b5090565b82805482825590600052602060002090810192821562001280579160200282015b828111156200127f5782518290805190602001906200126e929190620012fa565b50916020019190600101906200124d565b5b5090506200128f91906200138b565b5090565b828054828255906000526020600020908101928215620012e7579160200282015b82811115620012e6578251829080519060200190620012d5929190620012fa565b5091602001919060010190620012b4565b5b509050620012f691906200138b565b5090565b828054620013089062001447565b90600052602060002090601f0160209004810192826200132c576000855562001378565b82601f106200134757805160ff191683800117855562001378565b8280016001018555821562001378579182015b82811115620013775782518255916020019190600101906200135a565b5b509050620013879190620013b3565b5090565b5b80821115620013af5760008181620013a59190620013d2565b506001016200138c565b5090565b5b80821115620013ce576000816000905550600101620013b4565b5090565b508054620013e09062001447565b6000825580601f10620013f4575062001415565b601f016020900490600052602060002090810190620014149190620013b3565b5b50565b7f4e487b7100000000000000000000000000000000000000000000000000000000600052602260045260246000fd5b600060028204905060018216806200146057607f821691505b6020821081141562001477576200147662001418565b5b50919050565b614d84806200148d6000396000f3fe608060405234801561001057600080fd5b50600436106101c45760003560e01c806370a08231116100f9578063b88d4fde11610097578063dec6c15411610071578063dec6c15414610551578063e985e9c514610581578063efbb0bd2146105b1578063f2fde38b146105e1576101c4565b8063b88d4fde146104d5578063c87b56dd146104f1578063d163a2d614610521576101c4565b806395d89b41116100d357806395d89b411461043b578063a09de94114610459578063a22cb46514610489578063a5f23e1d146104a5576101c4565b806370a08231146103e3578063715018a6146104135780638da5cb5b1461041d576101c4565b8063296899cf116101665780634e71d92d116101405780634e71d92d146103495780634f6ccce714610353578063608d8136146103835780636352211e146103b3576101c4565b8063296899cf146102cd5780632f745c59146102fd57806342842e0e1461032d576101c4565b8063081812fc116101a2578063081812fc14610247578063095ea7b31461027757806318160ddd1461029357806323b872dd146102b1576101c4565b806301ffc9a7146101c9578063052d2836146101f957806306fdde0314610229575b600080fd5b6101e360048036038101906101de91906133ed565b6105fd565b6040516101f09190613435565b60405180910390f35b610213600480360381019061020e9190613486565b610677565b604051610220919061354c565b60405180910390f35b610231610791565b60405161023e919061354c565b60405180910390f35b610261600480360381019061025c9190613486565b610823565b60405161026e91906135af565b60405180910390f35b610291600480360381019061028c91906135f6565b6108a8565b005b61029b6109c0565b6040516102a89190613645565b60405180910390f35b6102cb60048036038101906102c69190613660565b6109cd565b005b6102e760048036038101906102e29190613486565b610a2d565b6040516102f4919061354c565b60405180910390f35b610317600480360381019061031291906135f6565b610b47565b6040516103249190613645565b60405180910390f35b61034760048036038101906103429190613660565b610bec565b005b610351610c0c565b005b61036d60048036038101906103689190613486565b610cd7565b60405161037a9190613645565b60405180910390f35b61039d60048036038101906103989190613486565b610d48565b6040516103aa919061354c565b60405180910390f35b6103cd60048036038101906103c89190613486565b610e62565b6040516103da91906135af565b60405180910390f35b6103fd60048036038101906103f891906136b3565b610f14565b60405161040a9190613645565b60405180910390f35b61041b610fcc565b005b610425611054565b60405161043291906135af565b60405180910390f35b61044361107e565b604051610450919061354c565b60405180910390f35b610473600480360381019061046e9190613486565b611110565b604051610480919061354c565b60405180910390f35b6104a3600480360381019061049e919061370c565b61122a565b005b6104bf60048036038101906104ba9190613486565b611240565b6040516104cc919061354c565b60405180910390f35b6104ef60048036038101906104ea9190613881565b61135a565b005b61050b60048036038101906105069190613486565b6113bc565b604051610518919061354c565b60405180910390f35b61053b60048036038101906105369190613486565b61198f565b604051610548919061354c565b60405180910390f35b61056b60048036038101906105669190613486565b611aa9565b604051610578919061354c565b60405180910390f35b61059b60048036038101906105969190613904565b611bc3565b6040516105a89190613435565b60405180910390f35b6105cb60048036038101906105c69190613486565b611c57565b6040516105d8919061354c565b60405180910390f35b6105fb60048036038101906105f691906136b3565b611d71565b005b60007f780e9d63000000000000000000000000000000000000000000000000000000007bffffffffffffffffffffffffffffffffffffffffffffffffffffffff1916827bffffffffffffffffffffffffffffffffffffffffffffffffffffffff19161480610670575061066f82611e69565b5b9050919050565b606061078a826040518060400160405280601181526020017f42554c4c4c4f5450524f4f465f56455354000000000000000000000000000000815250600f805480602002602001604051908101604052809291908181526020016000905b828210156107815783829060005260206000200180546106f490613973565b80601f016020809104026020016040519081016040528092919081815260200182805461072090613973565b801561076d5780601f106107425761010080835404028352916020019161076d565b820191906000526020600020905b81548152906001019060200180831161075057829003601f168201915b5050505050815260200190600101906106d5565b50505050611f4b565b9050919050565b6060600080546107a090613973565b80601f01602080910402602001604051908101604052809291908181526020018280546107cc90613973565b80156108195780601f106107ee57610100808354040283529160200191610819565b820191906000526020600020905b8154815290600101906020018083116107fc57829003601f168201915b5050505050905090565b600061082e82611fba565b61086d576040517f08c379a000000000000000000000000000000000000000000000000000000000815260040161086490613a17565b60405180910390fd5b6004600083815260200190815260200160002060009054906101000a900473ffffffffffffffffffffffffffffffffffffffff169050919050565b60006108b382610e62565b90508073ffffffffffffffffffffffffffffffffffffffff168373ffffffffffffffffffffffffffffffffffffffff161415610924576040517f08c379a000000000000000000000000000000000000000000000000000000000815260040161091b90613aa9565b60405180910390fd5b8073ffffffffffffffffffffffffffffffffffffffff16610943612026565b73ffffffffffffffffffffffffffffffffffffffff16148061097257506109718161096c612026565b611bc3565b5b6109b1576040517f08c379a00000000000000000000000000000000000000000000000000000000081526004016109a890613b3b565b60405180910390fd5b6109bb838361202e565b505050565b6000600880549050905090565b6109de6109d8612026565b826120e7565b610a1d576040517f08c379a0000000000000000000000000000000000000000000000000000000008152600401610a1490613bcd565b60405180910390fd5b610a288383836121c5565b505050565b6060610b40826040518060400160405280600b81526020017f4e49474854564953494f4e000000000000000000000000000000000000000000815250600e805480602002602001604051908101604052809291908181526020016000905b82821015610b37578382906000526020600020018054610aaa90613973565b80601f0160208091040260200160405190810160405280929190818152602001828054610ad690613973565b8015610b235780601f10610af857610100808354040283529160200191610b23565b820191906000526020600020905b815481529060010190602001808311610b0657829003601f168201915b505050505081526020019060010190610a8b565b50505050611f4b565b9050919050565b6000610b5283610f14565b8210610b93576040517f08c379a0000000000000000000000000000000000000000000000000000000008152600401610b8a90613c5f565b60405180910390fd5b600660008473ffffffffffffffffffffffffffffffffffffffff1673ffffffffffffffffffffffffffffffffffffffff168152602001908152602001600020600083815260200190815260200160002054905092915050565b610c078383836040518060200160405280600081525061135a565b505050565b6002600a541415610c52576040517f08c379a0000000000000000000000000000000000000000000000000000000008152600401610c4990613ccb565b60405180910390fd5b6002600a819055506000610c66600c61242c565b9050600081118015610c79575061115c81105b610cb8576040517f08c379a0000000000000000000000000000000000000000000000000000000008152600401610caf90613d37565b60405180910390fd5b610cc2338261243a565b610ccc600c612458565b506001600a81905550565b6000610ce16109c0565b8210610d22576040517f08c379a0000000000000000000000000000000000000000000000000000000008152600401610d1990613dc9565b60405180910390fd5b60088281548110610d3657610d35613de9565b5b90600052602060002001549050919050565b6060610e5b826040518060400160405280600881526020017f48414e445f47554e0000000000000000000000000000000000000000000000008152506011805480602002602001604051908101604052809291908181526020016000905b82821015610e52578382906000526020600020018054610dc590613973565b80601f0160208091040260200160405190810160405280929190818152602001828054610df190613973565b8015610e3e5780601f10610e1357610100808354040283529160200191610e3e565b820191906000526020600020905b815481529060010190602001808311610e2157829003601f168201915b505050505081526020019060010190610da6565b50505050611f4b565b9050919050565b6000806002600084815260200190815260200160002060009054906101000a900473ffffffffffffffffffffffffffffffffffffffff169050600073ffffffffffffffffffffffffffffffffffffffff168173ffffffffffffffffffffffffffffffffffffffff161415610f0b576040517f08c379a0000000000000000000000000000000000000000000000000000000008152600401610f0290613e8a565b60405180910390fd5b80915050919050565b60008073ffffffffffffffffffffffffffffffffffffffff168273ffffffffffffffffffffffffffffffffffffffff161415610f85576040517f08c379a0000000000000000000000000000000000000000000000000000000008152600401610f7c90613f1c565b60405180910390fd5b600360008373ffffffffffffffffffffffffffffffffffffffff1673ffffffffffffffffffffffffffffffffffffffff168152602001908152602001600020549050919050565b610fd4612026565b73ffffffffffffffffffffffffffffffffffffffff16610ff2611054565b73ffffffffffffffffffffffffffffffffffffffff1614611048576040517f08c379a000000000000000000000000000000000000000000000000000000000815260040161103f90613f88565b60405180910390fd5b611052600061246e565b565b6000600b60009054906101000a900473ffffffffffffffffffffffffffffffffffffffff16905090565b60606001805461108d90613973565b80601f01602080910402602001604051908101604052809291908181526020018280546110b990613973565b80156111065780601f106110db57610100808354040283529160200191611106565b820191906000526020600020905b8154815290600101906020018083116110e957829003601f168201915b5050505050905090565b6060611223826040518060400160405280600881526020017f4752454e414445530000000000000000000000000000000000000000000000008152506013805480602002602001604051908101604052809291908181526020016000905b8282101561121a57838290600052602060002001805461118d90613973565b80601f01602080910402602001604051908101604052809291908181526020018280546111b990613973565b80156112065780601f106111db57610100808354040283529160200191611206565b820191906000526020600020905b8154815290600101906020018083116111e957829003601f168201915b50505050508152602001906001019061116e565b50505050611f4b565b9050919050565b61123c611235612026565b8383612534565b5050565b6060611353826040518060400160405280600581526020017f53484f45530000000000000000000000000000000000000000000000000000008152506014805480602002602001604051908101604052809291908181526020016000905b8282101561134a5783829060005260206000200180546112bd90613973565b80601f01602080910402602001604051908101604052809291908181526020018280546112e990613973565b80156113365780601f1061130b57610100808354040283529160200191611336565b820191906000526020600020905b81548152906001019060200180831161131957829003601f168201915b50505050508152602001906001019061129e565b50505050611f4b565b9050919050565b61136b611365612026565b836120e7565b6113aa576040517f08c379a00000000000000000000000000000000000000000000000000000000081526004016113a190613bcd565b60405180910390fd5b6113b6848484846126a1565b50505050565b60606113c6613359565b60405180610120016040528060fd8152602001614c5260fd9139816000601381106113f4576113f3613de9565b5b602002018190525061140583611c57565b8160016013811061141957611418613de9565b5b6020020181905250604051806060016040528060288152602001614c2a602891398160026013811061144e5761144d613de9565b5b602002018190525061145f83610a2d565b8160036013811061147357611472613de9565b5b6020020181905250604051806060016040528060288152602001614af660289139816004601381106114a8576114a7613de9565b5b60200201819052506114b983610677565b816005601381106114cd576114cc613de9565b5b6020020181905250604051806060016040528060288152602001614b70602891398160066013811061150257611501613de9565b5b60200201819052506115138361198f565b8160076013811061152757611526613de9565b5b6020020181905250604051806060016040528060298152602001614b98602991398160086013811061155c5761155b613de9565b5b602002018190525061156d83610d48565b8160096013811061158157611580613de9565b5b6020020181905250604051806060016040528060298152602001614b476029913981600a601381106115b6576115b5613de9565b5b60200201819052506115c783611aa9565b81600b601381106115db576115da613de9565b5b6020020181905250604051806060016040528060298152602001614bc16029913981600e601381106116105761160f613de9565b5b602002018190525061162183611110565b81600f6013811061163557611634613de9565b5b6020020181905250604051806060016040528060298152602001614b1e602991398160106013811061166a57611669613de9565b5b602002018190525061167b83611240565b8160116013811061168f5761168e613de9565b5b60200201819052506040518060400160405280600d81526020017f3c2f746578743e3c2f7376673e00000000000000000000000000000000000000815250816012601381106116e1576116e0613de9565b5b60200201819052506000816000601381106116ff576116fe613de9565b5b60200201518260016013811061171857611717613de9565b5b60200201518360026013811061173157611730613de9565b5b60200201518460036013811061174a57611749613de9565b5b60200201518560046013811061176357611762613de9565b5b60200201518660056013811061177c5761177b613de9565b5b60200201518760066013811061179557611794613de9565b5b6020020151886007601381106117ae576117ad613de9565b5b6020020151896008601381106117c7576117c6613de9565b5b60200201516040516020016117e499989796959493929190613fe4565b6040516020818303038152906040529050808260096013811061180a57611809613de9565b5b602002015183600a6013811061182357611822613de9565b5b602002015184600b6013811061183c5761183b613de9565b5b602002015185600c6013811061185557611854613de9565b5b602002015186600d6013811061186e5761186d613de9565b5b602002015187600e6013811061188757611886613de9565b5b602002015188600f601381106118a05761189f613de9565b5b6020020151896010601381106118b9576118b8613de9565b5b60200201518a6011601381106118d2576118d1613de9565b5b60200201518b6012601381106118eb576118ea613de9565b5b602002015160405160200161190a9b9a99989796959493929190614063565b6040516020818303038152906040529050611924816126fd565b600061196061193286612796565b61193b846128f7565b60405160200161194c9291906142ea565b6040516020818303038152906040526128f7565b905080604051602001611973919061437b565b6040516020818303038152906040529150819350505050919050565b6060611aa2826040518060400160405280600581526020017f4b4e4946450000000000000000000000000000000000000000000000000000008152506010805480602002602001604051908101604052809291908181526020016000905b82821015611a99578382906000526020600020018054611a0c90613973565b80601f0160208091040260200160405190810160405280929190818152602001828054611a3890613973565b8015611a855780601f10611a5a57610100808354040283529160200191611a85565b820191906000526020600020905b815481529060010190602001808311611a6857829003601f168201915b5050505050815260200190600101906119ed565b50505050611f4b565b9050919050565b6060611bbc826040518060400160405280600681526020017f5249464c455300000000000000000000000000000000000000000000000000008152506012805480602002602001604051908101604052809291908181526020016000905b82821015611bb3578382906000526020600020018054611b2690613973565b80601f0160208091040260200160405190810160405280929190818152602001828054611b5290613973565b8015611b9f5780601f10611b7457610100808354040283529160200191611b9f565b820191906000526020600020905b815481529060010190602001808311611b8257829003601f168201915b505050505081526020019060010190611b07565b50505050611f4b565b9050919050565b6000600560008473ffffffffffffffffffffffffffffffffffffffff1673ffffffffffffffffffffffffffffffffffffffff16815260200190815260200160002060008373ffffffffffffffffffffffffffffffffffffffff1673ffffffffffffffffffffffffffffffffffffffff16815260200190815260200160002060009054906101000a900460ff16905092915050565b6060611d6a826040518060400160405280600681526020017f48454c4d45540000000000000000000000000000000000000000000000000000815250600d805480602002602001604051908101604052809291908181526020016000905b82821015611d61578382906000526020600020018054611cd490613973565b80601f0160208091040260200160405190810160405280929190818152602001828054611d0090613973565b8015611d4d5780601f10611d2257610100808354040283529160200191611d4d565b820191906000526020600020905b815481529060010190602001808311611d3057829003601f168201915b505050505081526020019060010190611cb5565b50505050611f4b565b9050919050565b611d79612026565b73ffffffffffffffffffffffffffffffffffffffff16611d97611054565b73ffffffffffffffffffffffffffffffffffffffff1614611ded576040517f08c379a0000000000000000000000000000000000000000000000000000000008152600401611de490613f88565b60405180910390fd5b600073ffffffffffffffffffffffffffffffffffffffff168173ffffffffffffffffffffffffffffffffffffffff161415611e5d576040517f08c379a0000000000000000000000000000000000000000000000000000000008152600401611e549061440f565b60405180910390fd5b611e668161246e565b50565b60007f80ac58cd000000000000000000000000000000000000000000000000000000007bffffffffffffffffffffffffffffffffffffffffffffffffffffffff1916827bffffffffffffffffffffffffffffffffffffffffffffffffffffffff19161480611f3457507f5b5e139f000000000000000000000000000000000000000000000000000000007bffffffffffffffffffffffffffffffffffffffffffffffffffffffff1916827bffffffffffffffffffffffffffffffffffffffffffffffffffffffff1916145b80611f445750611f4382612a8f565b5b9050919050565b60606000611f8184611f5c87612796565b604051602001611f6d92919061442f565b604051602081830303815290604052612af9565b9050600083845183611f939190614482565b81518110611fa457611fa3613de9565b5b6020026020010151905080925050509392505050565b60008073ffffffffffffffffffffffffffffffffffffffff166002600084815260200190815260200160002060009054906101000a900473ffffffffffffffffffffffffffffffffffffffff1673ffffffffffffffffffffffffffffffffffffffff1614159050919050565b600033905090565b816004600083815260200190815260200160002060006101000a81548173ffffffffffffffffffffffffffffffffffffffff021916908373ffffffffffffffffffffffffffffffffffffffff160217905550808273ffffffffffffffffffffffffffffffffffffffff166120a183610e62565b73ffffffffffffffffffffffffffffffffffffffff167f8c5be1e5ebec7d5bd14f71427d1e84f3dd0314c0f7b2291e5b200ac8c7c3b92560405160405180910390a45050565b60006120f282611fba565b612131576040517f08c379a000000000000000000000000000000000000000000000000000000000815260040161212890614525565b60405180910390fd5b600061213c83610e62565b90508073ffffffffffffffffffffffffffffffffffffffff168473ffffffffffffffffffffffffffffffffffffffff1614806121ab57508373ffffffffffffffffffffffffffffffffffffffff1661219384610823565b73ffffffffffffffffffffffffffffffffffffffff16145b806121bc57506121bb8185611bc3565b5b91505092915050565b8273ffffffffffffffffffffffffffffffffffffffff166121e582610e62565b73ffffffffffffffffffffffffffffffffffffffff161461223b576040517f08c379a0000000000000000000000000000000000000000000000000000000008152600401612232906145b7565b60405180910390fd5b600073ffffffffffffffffffffffffffffffffffffffff168273ffffffffffffffffffffffffffffffffffffffff1614156122ab576040517f08c379a00000000000000000000000000000000000000000000000000000000081526004016122a290614649565b60405180910390fd5b6122b6838383612b2c565b6122c160008261202e565b6001600360008573ffffffffffffffffffffffffffffffffffffffff1673ffffffffffffffffffffffffffffffffffffffff16815260200190815260200160002060008282546123119190614698565b925050819055506001600360008473ffffffffffffffffffffffffffffffffffffffff1673ffffffffffffffffffffffffffffffffffffffff168152602001908152602001600020600082825461236891906146cc565b92505081905550816002600083815260200190815260200160002060006101000a81548173ffffffffffffffffffffffffffffffffffffffff021916908373ffffffffffffffffffffffffffffffffffffffff160217905550808273ffffffffffffffffffffffffffffffffffffffff168473ffffffffffffffffffffffffffffffffffffffff167fddf252ad1be2c89b69c2b068fc378daa952ba7f163c4a11628f55a4df523b3ef60405160405180910390a4612427838383612c40565b505050565b600081600001549050919050565b612454828260405180602001604052806000815250612c45565b5050565b6001816000016000828254019250508190555050565b6000600b60009054906101000a900473ffffffffffffffffffffffffffffffffffffffff16905081600b60006101000a81548173ffffffffffffffffffffffffffffffffffffffff021916908373ffffffffffffffffffffffffffffffffffffffff1602179055508173ffffffffffffffffffffffffffffffffffffffff168173ffffffffffffffffffffffffffffffffffffffff167f8be0079c531659141344cd1fd0a4f28419497f9722a3daafe3b4186f6b6457e060405160405180910390a35050565b8173ffffffffffffffffffffffffffffffffffffffff168373ffffffffffffffffffffffffffffffffffffffff1614156125a3576040517f08c379a000000000000000000000000000000000000000000000000000000000815260040161259a9061476e565b60405180910390fd5b80600560008573ffffffffffffffffffffffffffffffffffffffff1673ffffffffffffffffffffffffffffffffffffffff16815260200190815260200160002060008473ffffffffffffffffffffffffffffffffffffffff1673ffffffffffffffffffffffffffffffffffffffff16815260200190815260200160002060006101000a81548160ff0219169083151502179055508173ffffffffffffffffffffffffffffffffffffffff168373ffffffffffffffffffffffffffffffffffffffff167f17307eab39ab6107e8899845ad3d59bd9653f200f220920489ca2b5937696c31836040516126949190613435565b60405180910390a3505050565b6126ac8484846121c5565b6126b884848484612ca0565b6126f7576040517f08c379a00000000000000000000000000000000000000000000000000000000081526004016126ee90614800565b60405180910390fd5b50505050565b61279381604051602401612711919061354c565b6040516020818303038152906040527f41304fac000000000000000000000000000000000000000000000000000000007bffffffffffffffffffffffffffffffffffffffffffffffffffffffff19166020820180517bffffffffffffffffffffffffffffffffffffffffffffffffffffffff8381831617835250505050612e28565b50565b606060008214156127de576040518060400160405280600181526020017f300000000000000000000000000000000000000000000000000000000000000081525090506128f2565b600082905060005b600082146128105780806127f990614820565b915050600a826128099190614869565b91506127e6565b60008167ffffffffffffffff81111561282c5761282b613756565b5b6040519080825280601f01601f19166020018201604052801561285e5781602001600182028036833780820191505090505b5090505b600085146128eb576001826128779190614698565b9150600a856128869190614482565b603061289291906146cc565b60f81b8183815181106128a8576128a7613de9565b5b60200101907effffffffffffffffffffffffffffffffffffffffffffffffffffffffffffff1916908160001a905350600a856128e49190614869565b9450612862565b8093505050505b919050565b606060008251905060008114156129205760405180602001604052806000815250915050612a8a565b6000600360028361293191906146cc565b61293b9190614869565b6004612947919061489a565b9050600060208261295891906146cc565b67ffffffffffffffff81111561297157612970613756565b5b6040519080825280601f01601f1916602001820160405280156129a35781602001600182028036833780820191505090505b5090506000604051806060016040528060408152602001614bea604091399050600181016020830160005b86811015612a475760038101905062ffffff818a015116603f8160121c168401518060081b905060ff603f83600c1c1686015116810190508060081b905060ff603f8360061c1686015116810190508060081b905060ff603f831686015116810190508060e01b905080845260048401935050506129ce565b506003860660018114612a615760028114612a7157612a7c565b613d3d60f01b6002830352612a7c565b603d60f81b60018303525b508484525050819450505050505b919050565b60007f01ffc9a7000000000000000000000000000000000000000000000000000000007bffffffffffffffffffffffffffffffffffffffffffffffffffffffff1916827bffffffffffffffffffffffffffffffffffffffffffffffffffffffff1916149050919050565b600081604051602001612b0c91906148f4565b6040516020818303038152906040528051906020012060001c9050919050565b612b37838383612e51565b600073ffffffffffffffffffffffffffffffffffffffff168373ffffffffffffffffffffffffffffffffffffffff161415612b7a57612b7581612e56565b612bb9565b8173ffffffffffffffffffffffffffffffffffffffff168373ffffffffffffffffffffffffffffffffffffffff1614612bb857612bb78382612e9f565b5b5b600073ffffffffffffffffffffffffffffffffffffffff168273ffffffffffffffffffffffffffffffffffffffff161415612bfc57612bf78161300c565b612c3b565b8273ffffffffffffffffffffffffffffffffffffffff168273ffffffffffffffffffffffffffffffffffffffff1614612c3a57612c3982826130dd565b5b5b505050565b505050565b612c4f838361315c565b612c5c6000848484612ca0565b612c9b576040517f08c379a0000000000000000000000000000000000000000000000000000000008152600401612c9290614800565b60405180910390fd5b505050565b6000612cc18473ffffffffffffffffffffffffffffffffffffffff16613336565b15612e1b578373ffffffffffffffffffffffffffffffffffffffff1663150b7a02612cea612026565b8786866040518563ffffffff1660e01b8152600401612d0c9493929190614960565b6020604051808303816000875af1925050508015612d4857506040513d601f19601f82011682018060405250810190612d4591906149c1565b60015b612dcb573d8060008114612d78576040519150601f19603f3d011682016040523d82523d6000602084013e612d7d565b606091505b50600081511415612dc3576040517f08c379a0000000000000000000000000000000000000000000000000000000008152600401612dba90614800565b60405180910390fd5b805181602001fd5b63150b7a0260e01b7bffffffffffffffffffffffffffffffffffffffffffffffffffffffff1916817bffffffffffffffffffffffffffffffffffffffffffffffffffffffff191614915050612e20565b600190505b949350505050565b60008151905060006a636f6e736f6c652e6c6f679050602083016000808483855afa5050505050565b505050565b6008805490506009600083815260200190815260200160002081905550600881908060018154018082558091505060019003906000526020600020016000909190919091505550565b60006001612eac84610f14565b612eb69190614698565b9050600060076000848152602001908152602001600020549050818114612f9b576000600660008673ffffffffffffffffffffffffffffffffffffffff1673ffffffffffffffffffffffffffffffffffffffff168152602001908152602001600020600084815260200190815260200160002054905080600660008773ffffffffffffffffffffffffffffffffffffffff1673ffffffffffffffffffffffffffffffffffffffff168152602001908152602001600020600084815260200190815260200160002081905550816007600083815260200190815260200160002081905550505b6007600084815260200190815260200160002060009055600660008573ffffffffffffffffffffffffffffffffffffffff1673ffffffffffffffffffffffffffffffffffffffff16815260200190815260200160002060008381526020019081526020016000206000905550505050565b600060016008805490506130209190614698565b90506000600960008481526020019081526020016000205490506000600883815481106130505761304f613de9565b5b90600052602060002001549050806008838154811061307257613071613de9565b5b9060005260206000200181905550816009600083815260200190815260200160002081905550600960008581526020019081526020016000206000905560088054806130c1576130c06149ee565b5b6001900381819060005260206000200160009055905550505050565b60006130e883610f14565b905081600660008573ffffffffffffffffffffffffffffffffffffffff1673ffffffffffffffffffffffffffffffffffffffff168152602001908152602001600020600083815260200190815260200160002081905550806007600084815260200190815260200160002081905550505050565b600073ffffffffffffffffffffffffffffffffffffffff168273ffffffffffffffffffffffffffffffffffffffff1614156131cc576040517f08c379a00000000000000000000000000000000000000000000000000000000081526004016131c390614a69565b60405180910390fd5b6131d581611fba565b15613215576040517f08c379a000000000000000000000000000000000000000000000000000000000815260040161320c90614ad5565b60405180910390fd5b61322160008383612b2c565b6001600360008473ffffffffffffffffffffffffffffffffffffffff1673ffffffffffffffffffffffffffffffffffffffff168152602001908152602001600020600082825461327191906146cc565b92505081905550816002600083815260200190815260200160002060006101000a81548173ffffffffffffffffffffffffffffffffffffffff021916908373ffffffffffffffffffffffffffffffffffffffff160217905550808273ffffffffffffffffffffffffffffffffffffffff16600073ffffffffffffffffffffffffffffffffffffffff167fddf252ad1be2c89b69c2b068fc378daa952ba7f163c4a11628f55a4df523b3ef60405160405180910390a461333260008383612c40565b5050565b6000808273ffffffffffffffffffffffffffffffffffffffff163b119050919050565b6040518061026001604052806013905b60608152602001906001900390816133695790505090565b6000604051905090565b600080fd5b600080fd5b60007fffffffff0000000000000000000000000000000000000000000000000000000082169050919050565b6133ca81613395565b81146133d557600080fd5b50565b6000813590506133e7816133c1565b92915050565b6000602082840312156134035761340261338b565b5b6000613411848285016133d8565b91505092915050565b60008115159050919050565b61342f8161341a565b82525050565b600060208201905061344a6000830184613426565b92915050565b6000819050919050565b61346381613450565b811461346e57600080fd5b50565b6000813590506134808161345a565b92915050565b60006020828403121561349c5761349b61338b565b5b60006134aa84828501613471565b91505092915050565b600081519050919050565b600082825260208201905092915050565b60005b838110156134ed5780820151818401526020810190506134d2565b838111156134fc576000848401525b50505050565b6000601f19601f8301169050919050565b600061351e826134b3565b61352881856134be565b93506135388185602086016134cf565b61354181613502565b840191505092915050565b600060208201905081810360008301526135668184613513565b905092915050565b600073ffffffffffffffffffffffffffffffffffffffff82169050919050565b60006135998261356e565b9050919050565b6135a98161358e565b82525050565b60006020820190506135c460008301846135a0565b92915050565b6135d38161358e565b81146135de57600080fd5b50565b6000813590506135f0816135ca565b92915050565b6000806040838503121561360d5761360c61338b565b5b600061361b858286016135e1565b925050602061362c85828601613471565b9150509250929050565b61363f81613450565b82525050565b600060208201905061365a6000830184613636565b92915050565b6000806000606084860312156136795761367861338b565b5b6000613687868287016135e1565b9350506020613698868287016135e1565b92505060406136a986828701613471565b9150509250925092565b6000602082840312156136c9576136c861338b565b5b60006136d7848285016135e1565b91505092915050565b6136e98161341a565b81146136f457600080fd5b50565b600081359050613706816136e0565b92915050565b600080604083850312156137235761372261338b565b5b6000613731858286016135e1565b9250506020613742858286016136f7565b9150509250929050565b600080fd5b600080fd5b7f4e487b7100000000000000000000000000000000000000000000000000000000600052604160045260246000fd5b61378e82613502565b810181811067ffffffffffffffff821117156137ad576137ac613756565b5b80604052505050565b60006137c0613381565b90506137cc8282613785565b919050565b600067ffffffffffffffff8211156137ec576137eb613756565b5b6137f582613502565b9050602081019050919050565b82818337600083830152505050565b600061382461381f846137d1565b6137b6565b9050828152602081018484840111156138405761383f613751565b5b61384b848285613802565b509392505050565b600082601f8301126138685761386761374c565b5b8135613878848260208601613811565b91505092915050565b6000806000806080858703121561389b5761389a61338b565b5b60006138a9878288016135e1565b94505060206138ba878288016135e1565b93505060406138cb87828801613471565b925050606085013567ffffffffffffffff8111156138ec576138eb613390565b5b6138f887828801613853565b91505092959194509250565b6000806040838503121561391b5761391a61338b565b5b6000613929858286016135e1565b925050602061393a858286016135e1565b9150509250929050565b7f4e487b7100000000000000000000000000000000000000000000000000000000600052602260045260246000fd5b6000600282049050600182168061398b57607f821691505b6020821081141561399f5761399e613944565b5b50919050565b7f4552433732313a20617070726f76656420717565727920666f72206e6f6e657860008201527f697374656e7420746f6b656e0000000000000000000000000000000000000000602082015250565b6000613a01602c836134be565b9150613a0c826139a5565b604082019050919050565b60006020820190508181036000830152613a30816139f4565b9050919050565b7f4552433732313a20617070726f76616c20746f2063757272656e74206f776e6560008201527f7200000000000000000000000000000000000000000000000000000000000000602082015250565b6000613a936021836134be565b9150613a9e82613a37565b604082019050919050565b60006020820190508181036000830152613ac281613a86565b9050919050565b7f4552433732313a20617070726f76652063616c6c6572206973206e6f74206f7760008201527f6e6572206e6f7220617070726f76656420666f7220616c6c0000000000000000602082015250565b6000613b256038836134be565b9150613b3082613ac9565b604082019050919050565b60006020820190508181036000830152613b5481613b18565b9050919050565b7f4552433732313a207472616e736665722063616c6c6572206973206e6f74206f60008201527f776e6572206e6f7220617070726f766564000000000000000000000000000000602082015250565b6000613bb76031836134be565b9150613bc282613b5b565b604082019050919050565b60006020820190508181036000830152613be681613baa565b9050919050565b7f455243373231456e756d657261626c653a206f776e657220696e646578206f7560008201527f74206f6620626f756e6473000000000000000000000000000000000000000000602082015250565b6000613c49602b836134be565b9150613c5482613bed565b604082019050919050565b60006020820190508181036000830152613c7881613c3c565b9050919050565b7f5265656e7472616e637947756172643a207265656e7472616e742063616c6c00600082015250565b6000613cb5601f836134be565b9150613cc082613c7f565b602082019050919050565b60006020820190508181036000830152613ce481613ca8565b9050919050565b7f546f6b656e20494420696e76616c696400000000000000000000000000000000600082015250565b6000613d216010836134be565b9150613d2c82613ceb565b602082019050919050565b60006020820190508181036000830152613d5081613d14565b9050919050565b7f455243373231456e756d657261626c653a20676c6f62616c20696e646578206f60008201527f7574206f6620626f756e64730000000000000000000000000000000000000000602082015250565b6000613db3602c836134be565b9150613dbe82613d57565b604082019050919050565b60006020820190508181036000830152613de281613da6565b9050919050565b7f4e487b7100000000000000000000000000000000000000000000000000000000600052603260045260246000fd5b7f4552433732313a206f776e657220717565727920666f72206e6f6e657869737460008201527f656e7420746f6b656e0000000000000000000000000000000000000000000000602082015250565b6000613e746029836134be565b9150613e7f82613e18565b604082019050919050565b60006020820190508181036000830152613ea381613e67565b9050919050565b7f4552433732313a2062616c616e636520717565727920666f7220746865207a6560008201527f726f206164647265737300000000000000000000000000000000000000000000602082015250565b6000613f06602a836134be565b9150613f1182613eaa565b604082019050919050565b60006020820190508181036000830152613f3581613ef9565b9050919050565b7f4f776e61626c653a2063616c6c6572206973206e6f7420746865206f776e6572600082015250565b6000613f726020836134be565b9150613f7d82613f3c565b602082019050919050565b60006020820190508181036000830152613fa181613f65565b9050919050565b600081905092915050565b6000613fbe826134b3565b613fc88185613fa8565b9350613fd88185602086016134cf565b80840191505092915050565b6000613ff0828c613fb3565b9150613ffc828b613fb3565b9150614008828a613fb3565b91506140148289613fb3565b91506140208288613fb3565b915061402c8287613fb3565b91506140388286613fb3565b91506140448285613fb3565b91506140508284613fb3565b91508190509a9950505050505050505050565b600061406f828e613fb3565b915061407b828d613fb3565b9150614087828c613fb3565b9150614093828b613fb3565b915061409f828a613fb3565b91506140ab8289613fb3565b91506140b78288613fb3565b91506140c38287613fb3565b91506140cf8286613fb3565b91506140db8285613fb3565b91506140e78284613fb3565b91508190509c9b505050505050505050505050565b7f7b226e616d65223a202244657620230000000000000000000000000000000000600082015250565b6000614132600f83613fa8565b915061413d826140fc565b600f82019050919050565b7f222c20226465736372697074696f6e223a2022446576656c6f7065727320617260008201527f6f756e642074686520776f726c6420617265207469726564206f6620776f726b60208201527f696e6720616e6420636f6e747269627574696e672074686569722074696d652060408201527f616e64206566666f727420746f20656e726963682074686520746f702031252e60608201527f204a6f696e20746865206d6f76656d656e74207468617420697320636f6d6d7560808201527f6e697479206f776e65642c206275696c64696e6720746865206675747572652060a08201527f66726f6d2074686520626f74746f6d2075702e222c2022696d616765223a202260c08201527f646174613a696d6167652f7376672b786d6c3b6261736536342c00000000000060e082015250565b600061428860fa83613fa8565b915061429382614148565b60fa82019050919050565b7f227d000000000000000000000000000000000000000000000000000000000000600082015250565b60006142d4600283613fa8565b91506142df8261429e565b600282019050919050565b60006142f582614125565b91506143018285613fb3565b915061430c8261427b565b91506143188284613fb3565b9150614323826142c7565b91508190509392505050565b7f646174613a6170706c69636174696f6e2f6a736f6e3b6261736536342c000000600082015250565b6000614365601d83613fa8565b91506143708261432f565b601d82019050919050565b600061438682614358565b91506143928284613fb3565b915081905092915050565b7f4f776e61626c653a206e6577206f776e657220697320746865207a65726f206160008201527f6464726573730000000000000000000000000000000000000000000000000000602082015250565b60006143f96026836134be565b91506144048261439d565b604082019050919050565b60006020820190508181036000830152614428816143ec565b9050919050565b600061443b8285613fb3565b91506144478284613fb3565b91508190509392505050565b7f4e487b7100000000000000000000000000000000000000000000000000000000600052601260045260246000fd5b600061448d82613450565b915061449883613450565b9250826144a8576144a7614453565b5b828206905092915050565b7f4552433732313a206f70657261746f7220717565727920666f72206e6f6e657860008201527f697374656e7420746f6b656e0000000000000000000000000000000000000000602082015250565b600061450f602c836134be565b915061451a826144b3565b604082019050919050565b6000602082019050818103600083015261453e81614502565b9050919050565b7f4552433732313a207472616e736665722066726f6d20696e636f72726563742060008201527f6f776e6572000000000000000000000000000000000000000000000000000000602082015250565b60006145a16025836134be565b91506145ac82614545565b604082019050919050565b600060208201905081810360008301526145d081614594565b9050919050565b7f4552433732313a207472616e7366657220746f20746865207a65726f2061646460008201527f7265737300000000000000000000000000000000000000000000000000000000602082015250565b60006146336024836134be565b915061463e826145d7565b604082019050919050565b6000602082019050818103600083015261466281614626565b9050919050565b7f4e487b7100000000000000000000000000000000000000000000000000000000600052601160045260246000fd5b60006146a382613450565b91506146ae83613450565b9250828210156146c1576146c0614669565b5b828203905092915050565b60006146d782613450565b91506146e283613450565b9250827fffffffffffffffffffffffffffffffffffffffffffffffffffffffffffffffff0382111561471757614716614669565b5b828201905092915050565b7f4552433732313a20617070726f766520746f2063616c6c657200000000000000600082015250565b60006147586019836134be565b915061476382614722565b602082019050919050565b600060208201905081810360008301526147878161474b565b9050919050565b7f4552433732313a207472616e7366657220746f206e6f6e20455243373231526560008201527f63656976657220696d706c656d656e7465720000000000000000000000000000602082015250565b60006147ea6032836134be565b91506147f58261478e565b604082019050919050565b60006020820190508181036000830152614819816147dd565b9050919050565b600061482b82613450565b91507fffffffffffffffffffffffffffffffffffffffffffffffffffffffffffffffff82141561485e5761485d614669565b5b600182019050919050565b600061487482613450565b915061487f83613450565b92508261488f5761488e614453565b5b828204905092915050565b60006148a582613450565b91506148b083613450565b9250817fffffffffffffffffffffffffffffffffffffffffffffffffffffffffffffffff04831182151516156148e9576148e8614669565b5b828202905092915050565b60006149008284613fb3565b915081905092915050565b600081519050919050565b600082825260208201905092915050565b60006149328261490b565b61493c8185614916565b935061494c8185602086016134cf565b61495581613502565b840191505092915050565b600060808201905061497560008301876135a0565b61498260208301866135a0565b61498f6040830185613636565b81810360608301526149a18184614927565b905095945050505050565b6000815190506149bb816133c1565b92915050565b6000602082840312156149d7576149d661338b565b5b60006149e5848285016149ac565b91505092915050565b7f4e487b7100000000000000000000000000000000000000000000000000000000600052603160045260246000fd5b7f4552433732313a206d696e7420746f20746865207a65726f2061646472657373600082015250565b6000614a536020836134be565b9150614a5e82614a1d565b602082019050919050565b60006020820190508181036000830152614a8281614a46565b9050919050565b7f4552433732313a20746f6b656e20616c7265616479206d696e74656400000000600082015250565b6000614abf601c836134be565b9150614aca82614a89565b602082019050919050565b60006020820190508181036000830152614aee81614ab2565b905091905056fe3c2f746578743e3c7465787420783d2231302220793d2236302220636c6173733d2262617365223e3c2f746578743e3c7465787420783d2231302220793d223136302220636c6173733d2262617365223e3c2f746578743e3c7465787420783d2231302220793d223132302220636c6173733d2262617365223e3c2f746578743e3c7465787420783d2231302220793d2238302220636c6173733d2262617365223e3c2f746578743e3c7465787420783d2231302220793d223130302220636c6173733d2262617365223e3c2f746578743e3c7465787420783d2231302220793d223134302220636c6173733d2262617365223e4142434445464748494a4b4c4d4e4f505152535455565758595a6162636465666768696a6b6c6d6e6f707172737475767778797a303132333435363738392b2f3c2f746578743e3c7465787420783d2231302220793d2234302220636c6173733d2262617365223e3c73766720786d6c6e733d22687474703a2f2f7777772e77332e6f72672f323030302f73766722207072657365727665417370656374526174696f3d22784d696e594d696e206d656574222076696577426f783d223020302033353020333530223e3c7374796c653e2e62617365207b2066696c6c3a20626c61636b3b20666f6e742d66616d696c793a2073657269663b20666f6e742d73697a653a20313470783b207d3c2f7374796c653e3c726563742077696474683d223130302522206865696768743d2231303025222066696c6c3d22776869746522202f3e3c7465787420783d2231302220793d2232302220636c6173733d2262617365223ea2646970667358221220165c7edd7f1087c53b7b5163bc2975b0f182f6a0d2de8c9fdcafd58b605eee5a64736f6c634300080a0033",
  "linkReferences": {},
  "deployedLinkReferences": {}
}